{
  "_format": "hh-sol-artifact-1",
  "contractName": "BlobstreamO",
  "sourceName": "contracts/bridge/BlobstreamO.sol",
  "abi": [
    {
      "inputs": [
        {
          "internalType": "address",
          "name": "_guardian",
          "type": "address"
        }
      ],
      "stateMutability": "nonpayable",
      "type": "constructor"
    },
    {
      "inputs": [],
      "name": "AlreadyInitialized",
      "type": "error"
    },
    {
      "inputs": [],
      "name": "ECDSAInvalidSignature",
      "type": "error"
    },
    {
      "inputs": [
        {
          "internalType": "uint256",
          "name": "length",
          "type": "uint256"
        }
      ],
      "name": "ECDSAInvalidSignatureLength",
      "type": "error"
    },
    {
      "inputs": [
        {
          "internalType": "bytes32",
          "name": "s",
          "type": "bytes32"
        }
      ],
      "name": "ECDSAInvalidSignatureS",
      "type": "error"
    },
    {
      "inputs": [],
      "name": "InsufficientVotingPower",
      "type": "error"
    },
    {
      "inputs": [],
      "name": "InvalidPowerThreshold",
      "type": "error"
    },
    {
      "inputs": [],
      "name": "InvalidSignature",
      "type": "error"
    },
    {
      "inputs": [],
      "name": "MalformedCurrentValidatorSet",
      "type": "error"
    },
    {
      "inputs": [],
      "name": "NotConsensusValue",
      "type": "error"
    },
    {
      "inputs": [],
      "name": "NotDeployer",
      "type": "error"
    },
    {
      "inputs": [],
      "name": "NotGuardian",
      "type": "error"
    },
    {
      "inputs": [],
      "name": "StaleValidatorSet",
      "type": "error"
    },
    {
      "inputs": [],
      "name": "SuppliedValidatorSetInvalid",
      "type": "error"
    },
    {
      "inputs": [],
      "name": "ValidatorSetNotStale",
      "type": "error"
    },
    {
      "inputs": [],
      "name": "ValidatorTimestampMustIncrease",
      "type": "error"
    },
    {
      "anonymous": false,
      "inputs": [
        {
          "indexed": false,
          "internalType": "uint256",
          "name": "_powerThreshold",
          "type": "uint256"
        },
        {
          "indexed": false,
          "internalType": "uint256",
          "name": "_validatorTimestamp",
          "type": "uint256"
        },
        {
          "indexed": false,
          "internalType": "bytes32",
          "name": "_validatorSetHash",
          "type": "bytes32"
        }
      ],
      "name": "ValidatorSetUpdated",
      "type": "event"
    },
    {
      "inputs": [],
      "name": "deployer",
      "outputs": [
        {
          "internalType": "address",
          "name": "",
          "type": "address"
        }
      ],
      "stateMutability": "view",
      "type": "function"
    },
    {
      "inputs": [],
      "name": "guardian",
      "outputs": [
        {
          "internalType": "address",
          "name": "",
          "type": "address"
        }
      ],
      "stateMutability": "view",
      "type": "function"
    },
    {
      "inputs": [
        {
          "internalType": "uint256",
          "name": "_powerThreshold",
          "type": "uint256"
        },
        {
          "internalType": "uint256",
          "name": "_validatorTimestamp",
          "type": "uint256"
        },
        {
          "internalType": "bytes32",
          "name": "_validatorSetCheckpoint",
          "type": "bytes32"
        }
      ],
      "name": "guardianResetValidatorSet",
      "outputs": [],
      "stateMutability": "nonpayable",
      "type": "function"
    },
    {
      "inputs": [
        {
          "internalType": "uint256",
          "name": "_powerThreshold",
          "type": "uint256"
        },
        {
          "internalType": "uint256",
          "name": "_validatorTimestamp",
          "type": "uint256"
        },
        {
          "internalType": "uint256",
          "name": "_unbondingPeriod",
          "type": "uint256"
        },
        {
          "internalType": "bytes32",
          "name": "_validatorSetCheckpoint",
          "type": "bytes32"
        }
      ],
      "name": "init",
      "outputs": [],
      "stateMutability": "nonpayable",
      "type": "function"
    },
    {
      "inputs": [],
      "name": "initialized",
      "outputs": [
        {
          "internalType": "bool",
          "name": "",
          "type": "bool"
        }
      ],
      "stateMutability": "view",
      "type": "function"
    },
    {
      "inputs": [],
      "name": "lastValidatorSetCheckpoint",
      "outputs": [
        {
          "internalType": "bytes32",
          "name": "",
          "type": "bytes32"
        }
      ],
      "stateMutability": "view",
      "type": "function"
    },
    {
      "inputs": [],
      "name": "powerThreshold",
      "outputs": [
        {
          "internalType": "uint256",
          "name": "",
          "type": "uint256"
        }
      ],
      "stateMutability": "view",
      "type": "function"
    },
    {
      "inputs": [],
      "name": "unbondingPeriod",
      "outputs": [
        {
          "internalType": "uint256",
          "name": "",
          "type": "uint256"
        }
      ],
      "stateMutability": "view",
      "type": "function"
    },
    {
      "inputs": [
        {
          "internalType": "bytes32",
          "name": "_newValidatorSetHash",
          "type": "bytes32"
        },
        {
          "internalType": "uint64",
          "name": "_newPowerThreshold",
          "type": "uint64"
        },
        {
          "internalType": "uint256",
          "name": "_newValidatorTimestamp",
          "type": "uint256"
        },
        {
          "components": [
            {
              "internalType": "address",
              "name": "addr",
              "type": "address"
            },
            {
              "internalType": "uint256",
              "name": "power",
              "type": "uint256"
            }
          ],
          "internalType": "struct Validator[]",
          "name": "_currentValidatorSet",
          "type": "tuple[]"
        },
        {
          "components": [
            {
              "internalType": "uint8",
              "name": "v",
              "type": "uint8"
            },
            {
              "internalType": "bytes32",
              "name": "r",
              "type": "bytes32"
            },
            {
              "internalType": "bytes32",
              "name": "s",
              "type": "bytes32"
            }
          ],
          "internalType": "struct Signature[]",
          "name": "_sigs",
          "type": "tuple[]"
        }
      ],
      "name": "updateValidatorSet",
      "outputs": [],
      "stateMutability": "nonpayable",
      "type": "function"
    },
    {
      "inputs": [],
      "name": "validatorTimestamp",
      "outputs": [
        {
          "internalType": "uint256",
          "name": "",
          "type": "uint256"
        }
      ],
      "stateMutability": "view",
      "type": "function"
    },
    {
      "inputs": [
        {
          "components": [
            {
              "internalType": "bytes32",
              "name": "queryId",
              "type": "bytes32"
            },
            {
              "components": [
                {
                  "internalType": "bytes",
                  "name": "value",
                  "type": "bytes"
                },
                {
                  "internalType": "uint256",
                  "name": "timestamp",
                  "type": "uint256"
                },
                {
                  "internalType": "uint256",
                  "name": "aggregatePower",
                  "type": "uint256"
                },
                {
                  "internalType": "uint256",
                  "name": "previousTimestamp",
                  "type": "uint256"
                },
                {
                  "internalType": "uint256",
                  "name": "nextTimestamp",
                  "type": "uint256"
                }
              ],
              "internalType": "struct ReportData",
              "name": "report",
              "type": "tuple"
            },
            {
              "internalType": "uint256",
              "name": "attestationTimestamp",
              "type": "uint256"
            }
          ],
          "internalType": "struct OracleAttestationData",
          "name": "_attestData",
          "type": "tuple"
        },
        {
          "components": [
            {
              "internalType": "address",
              "name": "addr",
              "type": "address"
            },
            {
              "internalType": "uint256",
              "name": "power",
              "type": "uint256"
            }
          ],
          "internalType": "struct Validator[]",
          "name": "_currentValidatorSet",
          "type": "tuple[]"
        },
        {
          "components": [
            {
              "internalType": "uint8",
              "name": "v",
              "type": "uint8"
            },
            {
              "internalType": "bytes32",
              "name": "r",
              "type": "bytes32"
            },
            {
              "internalType": "bytes32",
              "name": "s",
              "type": "bytes32"
            }
          ],
          "internalType": "struct Signature[]",
          "name": "_sigs",
          "type": "tuple[]"
        }
      ],
      "name": "verifyOracleData",
      "outputs": [],
      "stateMutability": "view",
      "type": "function"
    }
  ],
  "bytecode": "0x608060405234801561001057600080fd5b50604051610d62380380610d6283398101604081905261002f9161005d565b600080546001600160a01b039092166001600160a01b0319928316179055600580549091163317905561008d565b60006020828403121561006f57600080fd5b81516001600160a01b038116811461008657600080fd5b9392505050565b610cc68061009c6000396000f3fe608060405234801561001057600080fd5b50600436106100b95760003560e01c80635121b26e11610081578063af082a7d1161005b578063af082a7d14610180578063ba95ec2714610189578063d5f394881461019257600080fd5b80635121b26e146101515780636cf6d6751461016457806384330d4c1461016d57600080fd5b8063158ef93e146100be578063185bf52b146100e75780634394f6f3146100fc578063452a93201461010f5780634f76f1ee1461013a575b600080fd5b6005546100d290600160a01b900460ff1681565b60405190151581526020015b60405180910390f35b6100fa6100f536600461081b565b6101a5565b005b6100fa61010a366004610847565b61021a565b600054610122906001600160a01b031681565b6040516001600160a01b0390911681526020016100de565b61014360045481565b6040519081526020016100de565b6100fa61015f36600461090a565b610296565b61014360035481565b6100fa61017b3660046109a7565b6103e8565b61014360015481565b61014360025481565b600554610122906001600160a01b031681565b6000546001600160a01b031633146101d0576040516377b6878160e11b815260040160405180910390fd5b6003546103e86004546101e39190610a5a565b6101ed9042610a7c565b101561020c57604051630e1b676960e11b815260040160405180910390fd5b600292909255600455600155565b6005546001600160a01b0316331461024557604051638b906c9760e01b815260040160405180910390fd5b600554600160a01b900460ff161561026f5760405162dc149f60e41b815260040160405180910390fd5b6005805460ff60a01b1916600160a01b179055600293909355600491909155600355600155565b8281146102b65760405163c6617b7b60e01b815260040160405180910390fd5b600084846040516020016102cb929190610ab1565b6040516020818303038152906040528051906020012090506001546102f560025460045484610541565b1461031357604051630bbdaec960e11b815260040160405180910390fd5b60007f74656c6c6f7243757272656e744174746573746174696f6e0000000000000000873561034560208a018a610b08565b61034f9080610b28565b61035c60208c018c610b08565b602001358b80602001906103709190610b08565b6040013561038160208e018e610b08565b6060013561039260208f018f610b08565b608001356001548f604001356040516020016103b79a99989796959493929190610b6f565b6040516020818303038152906040528051906020012090506103df8686868685600254610591565b50505050505050565b8281146104085760405163c6617b7b60e01b815260040160405180910390fd5b60045485101561042b57604051630780635d60e41b815260040160405180910390fd5b8567ffffffffffffffff1660000361045657604051631876e19160e31b815260040160405180910390fd5b6000848460405160200161046b929190610ab1565b60405160208183030381529060405280519060200120905060015461049560025460045484610541565b146104b357604051630bbdaec960e11b815260040160405180910390fd5b60006104ca8867ffffffffffffffff16888b610541565b90506104dc8686868685600254610591565b600181905567ffffffffffffffff881660028190556004889055604080519182526020820189905281018a90527fe304b71f81a1aaf6d714401de28ba1ebdbb5ff9c5fee59ef2a6eb984f9e8da7e9060600160405180910390a1505050505050505050565b604080516918da1958dadc1bda5b9d60b21b6020820152908101849052606081018390526080810182905260009060a0016040516020818303038152906040528051906020012090509392505050565b6003546103e86004546105a49190610a5a565b6105ae9042610a7c565b11156105cd57604051633979791960e21b815260040160405180910390fd5b6000805b868110156106fb578585828181106105eb576105eb610bda565b905060600201602001356000801b148015610623575085858281811061061357610613610bda565b905060600201604001356000801b145b8015610657575085858281811061063c5761063c610bda565b6106529260206060909202019081019150610bf0565b60ff16155b6106f3576106a488888381811061067057610670610bda565b6106869260206040909202019081019150610c1a565b8588888581811061069957610699610bda565b90506060020161071d565b6106c157604051638baa579f60e01b815260040160405180910390fd5b8787828181106106d3576106d3610bda565b90506040020160200135826106e89190610c35565b9150828210156106fb575b6001016105d1565b50818110156103df5760405163cabeb65560e01b815260040160405180910390fd5b600060028360405160200161073491815260200190565b60408051601f198184030181529082905261074e91610c48565b602060405180830381855afa15801561076b573d6000803e3d6000fd5b5050506040513d601f19601f8201168201806040525081019061078e9190610c77565b92506001836107a06020850185610bf0565b604080516000815260208181018084529490945260ff9092168282015291850135606082015290840135608082015260a0016020604051602081039080840390855afa1580156107f4573d6000803e3d6000fd5b505050602060405103516001600160a01b0316846001600160a01b03161490509392505050565b60008060006060848603121561083057600080fd5b505081359360208301359350604090920135919050565b6000806000806080858703121561085d57600080fd5b5050823594602084013594506040840135936060013592509050565b60008083601f84011261088b57600080fd5b50813567ffffffffffffffff8111156108a357600080fd5b6020830191508360208260061b85010111156108be57600080fd5b9250929050565b60008083601f8401126108d757600080fd5b50813567ffffffffffffffff8111156108ef57600080fd5b6020830191508360206060830285010111156108be57600080fd5b60008060008060006060868803121561092257600080fd5b853567ffffffffffffffff8082111561093a57600080fd5b908701906060828a03121561094e57600080fd5b9095506020870135908082111561096457600080fd5b61097089838a01610879565b9096509450604088013591508082111561098957600080fd5b50610996888289016108c5565b969995985093965092949392505050565b600080600080600080600060a0888a0312156109c257600080fd5b87359650602088013567ffffffffffffffff80821682146109e257600080fd5b90965060408901359550606089013590808211156109ff57600080fd5b610a0b8b838c01610879565b909650945060808a0135915080821115610a2457600080fd5b50610a318a828b016108c5565b989b979a50959850939692959293505050565b634e487b7160e01b600052601160045260246000fd5b600082610a7757634e487b7160e01b600052601260045260246000fd5b500490565b81810381811115610a8f57610a8f610a44565b92915050565b80356001600160a01b0381168114610aac57600080fd5b919050565b6020808252818101839052600090604080840186845b87811015610afb576001600160a01b03610ae083610a95565b16835281850135858401529183019190830190600101610ac7565b5090979650505050505050565b60008235609e19833603018112610b1e57600080fd5b9190910192915050565b6000808335601e19843603018112610b3f57600080fd5b83018035915067ffffffffffffffff821115610b5a57600080fd5b6020019150368190038213156108be57600080fd5b60006101208c83528b6020840152806040840152898184015250610140898b828501376000838b01820152606083019890985250608081019590955260a085019390935260c084019190915260e0830152610100820152601f909201601f1916909101019392505050565b634e487b7160e01b600052603260045260246000fd5b600060208284031215610c0257600080fd5b813560ff81168114610c1357600080fd5b9392505050565b600060208284031215610c2c57600080fd5b610c1382610a95565b80820180821115610a8f57610a8f610a44565b6000825160005b81811015610c695760208186018101518583015201610c4f565b506000920191825250919050565b600060208284031215610c8957600080fd5b505191905056fea26469706673582212204d3705a67a4f77e295846fd989761b407bb2adf116f9fdb1d4707651465bdc1a64736f6c63430008160033",
  "linkReferences": {},
  "deployedLinkReferences": {}
}