{
  "_format": "hh-sol-artifact-1",
  "contractName": "BlobstreamO",
  "sourceName": "contracts/bridge/BlobstreamO.sol",
  "abi": [
    {
      "inputs": [
        {
          "internalType": "address",
          "name": "_guardian",
          "type": "address"
        }
      ],
      "stateMutability": "nonpayable",
      "type": "constructor"
    },
    {
      "inputs": [],
      "name": "AlreadyInitialized",
      "type": "error"
    },
    {
      "inputs": [],
      "name": "ECDSAInvalidSignature",
      "type": "error"
    },
    {
      "inputs": [
        {
          "internalType": "uint256",
          "name": "length",
          "type": "uint256"
        }
      ],
      "name": "ECDSAInvalidSignatureLength",
      "type": "error"
    },
    {
      "inputs": [
        {
          "internalType": "bytes32",
          "name": "s",
          "type": "bytes32"
        }
      ],
      "name": "ECDSAInvalidSignatureS",
      "type": "error"
    },
    {
      "inputs": [],
      "name": "InsufficientVotingPower",
      "type": "error"
    },
    {
      "inputs": [],
      "name": "InvalidPowerThreshold",
      "type": "error"
    },
    {
      "inputs": [],
      "name": "InvalidSignature",
      "type": "error"
    },
    {
      "inputs": [],
      "name": "MalformedCurrentValidatorSet",
      "type": "error"
    },
    {
      "inputs": [],
      "name": "NotConsensusValue",
      "type": "error"
    },
    {
      "inputs": [],
      "name": "NotDeployer",
      "type": "error"
    },
    {
      "inputs": [],
      "name": "NotGuardian",
      "type": "error"
    },
    {
      "inputs": [],
      "name": "StaleValidatorSet",
      "type": "error"
    },
    {
      "inputs": [],
      "name": "SuppliedValidatorSetInvalid",
      "type": "error"
    },
    {
      "inputs": [],
      "name": "ValidatorSetNotStale",
      "type": "error"
    },
    {
      "inputs": [],
      "name": "ValidatorTimestampMustIncrease",
      "type": "error"
    },
    {
      "anonymous": false,
      "inputs": [
        {
          "indexed": false,
          "internalType": "uint256",
          "name": "_powerThreshold",
          "type": "uint256"
        },
        {
          "indexed": false,
          "internalType": "uint256",
          "name": "_validatorTimestamp",
          "type": "uint256"
        },
        {
          "indexed": false,
          "internalType": "bytes32",
          "name": "_validatorSetHash",
          "type": "bytes32"
        }
      ],
      "name": "ValidatorSetUpdated",
      "type": "event"
    },
    {
      "inputs": [],
      "name": "deployer",
      "outputs": [
        {
          "internalType": "address",
          "name": "",
          "type": "address"
        }
      ],
      "stateMutability": "view",
      "type": "function"
    },
    {
      "inputs": [],
      "name": "guardian",
      "outputs": [
        {
          "internalType": "address",
          "name": "",
          "type": "address"
        }
      ],
      "stateMutability": "view",
      "type": "function"
    },
    {
      "inputs": [
        {
          "internalType": "uint256",
          "name": "_powerThreshold",
          "type": "uint256"
        },
        {
          "internalType": "uint256",
          "name": "_validatorTimestamp",
          "type": "uint256"
        },
        {
          "internalType": "bytes32",
          "name": "_validatorSetCheckpoint",
          "type": "bytes32"
        }
      ],
      "name": "guardianResetValidatorSet",
      "outputs": [],
      "stateMutability": "nonpayable",
      "type": "function"
    },
    {
      "inputs": [
        {
          "internalType": "uint256",
          "name": "_powerThreshold",
          "type": "uint256"
        },
        {
          "internalType": "uint256",
          "name": "_validatorTimestamp",
          "type": "uint256"
        },
        {
          "internalType": "uint256",
          "name": "_unbondingPeriod",
          "type": "uint256"
        },
        {
          "internalType": "bytes32",
          "name": "_validatorSetCheckpoint",
          "type": "bytes32"
        }
      ],
      "name": "init",
      "outputs": [],
      "stateMutability": "nonpayable",
      "type": "function"
    },
    {
      "inputs": [],
      "name": "initialized",
      "outputs": [
        {
          "internalType": "bool",
          "name": "",
          "type": "bool"
        }
      ],
      "stateMutability": "view",
      "type": "function"
    },
    {
      "inputs": [],
      "name": "lastValidatorSetCheckpoint",
      "outputs": [
        {
          "internalType": "bytes32",
          "name": "",
          "type": "bytes32"
        }
      ],
      "stateMutability": "view",
      "type": "function"
    },
    {
      "inputs": [],
      "name": "powerThreshold",
      "outputs": [
        {
          "internalType": "uint256",
          "name": "",
          "type": "uint256"
        }
      ],
      "stateMutability": "view",
      "type": "function"
    },
    {
      "inputs": [],
      "name": "removeMe",
      "outputs": [
        {
          "internalType": "bool",
          "name": "",
          "type": "bool"
        }
      ],
      "stateMutability": "view",
      "type": "function"
    },
    {
      "inputs": [],
      "name": "unbondingPeriod",
      "outputs": [
        {
          "internalType": "uint256",
          "name": "",
          "type": "uint256"
        }
      ],
      "stateMutability": "view",
      "type": "function"
    },
    {
      "inputs": [
        {
          "components": [
            {
              "internalType": "address",
              "name": "addr",
              "type": "address"
            },
            {
              "internalType": "uint256",
              "name": "power",
              "type": "uint256"
            }
          ],
          "internalType": "struct Validator[]",
          "name": "_currentValidatorSet",
          "type": "tuple[]"
        }
      ],
      "name": "updateCurrentValidatorSet",
      "outputs": [],
      "stateMutability": "nonpayable",
      "type": "function"
    },
    {
      "inputs": [
        {
          "internalType": "uint64",
          "name": "_newPowerThreshold",
          "type": "uint64"
        }
      ],
      "name": "updateNewPowerThreshold",
      "outputs": [],
      "stateMutability": "nonpayable",
      "type": "function"
    },
    {
      "inputs": [
        {
          "internalType": "bytes32",
          "name": "_newValidatorSetHash",
          "type": "bytes32"
        }
      ],
      "name": "updateNewValidatorSetHash",
      "outputs": [],
      "stateMutability": "nonpayable",
      "type": "function"
    },
    {
      "inputs": [
        {
          "internalType": "uint256",
          "name": "_newValidatorTimestamp",
          "type": "uint256"
        }
      ],
      "name": "updateNewValidatorTimestamp",
      "outputs": [],
      "stateMutability": "nonpayable",
      "type": "function"
    },
    {
      "inputs": [
        {
          "components": [
            {
              "internalType": "uint8",
              "name": "v",
              "type": "uint8"
            },
            {
              "internalType": "bytes32",
              "name": "r",
              "type": "bytes32"
            },
            {
              "internalType": "bytes32",
              "name": "s",
              "type": "bytes32"
            }
          ],
          "internalType": "struct Signature[]",
          "name": "_sigs",
          "type": "tuple[]"
        }
      ],
      "name": "updateSigs",
      "outputs": [],
      "stateMutability": "nonpayable",
      "type": "function"
    },
    {
      "inputs": [
        {
          "internalType": "bytes32",
          "name": "_newValidatorSetHash",
          "type": "bytes32"
        },
        {
          "internalType": "uint64",
          "name": "_newPowerThreshold",
          "type": "uint64"
        },
        {
          "internalType": "uint256",
          "name": "_newValidatorTimestamp",
          "type": "uint256"
        },
        {
          "components": [
            {
              "internalType": "address",
              "name": "addr",
              "type": "address"
            },
            {
              "internalType": "uint256",
              "name": "power",
              "type": "uint256"
            }
          ],
          "internalType": "struct Validator[]",
          "name": "_currentValidatorSet",
          "type": "tuple[]"
        },
        {
          "components": [
            {
              "internalType": "uint8",
              "name": "v",
              "type": "uint8"
            },
            {
              "internalType": "bytes32",
              "name": "r",
              "type": "bytes32"
            },
            {
              "internalType": "bytes32",
              "name": "s",
              "type": "bytes32"
            }
          ],
          "internalType": "struct Signature[]",
          "name": "_sigs",
          "type": "tuple[]"
        }
      ],
      "name": "updateValidatorSet",
      "outputs": [],
      "stateMutability": "nonpayable",
      "type": "function"
    },
    {
      "inputs": [],
      "name": "validatorTimestamp",
      "outputs": [
        {
          "internalType": "uint256",
          "name": "",
          "type": "uint256"
        }
      ],
      "stateMutability": "view",
      "type": "function"
    },
    {
      "inputs": [
        {
          "components": [
            {
              "internalType": "bytes32",
              "name": "queryId",
              "type": "bytes32"
            },
            {
              "components": [
                {
                  "internalType": "bytes",
                  "name": "value",
                  "type": "bytes"
                },
                {
                  "internalType": "uint256",
                  "name": "timestamp",
                  "type": "uint256"
                },
                {
                  "internalType": "uint256",
                  "name": "aggregatePower",
                  "type": "uint256"
                },
                {
                  "internalType": "uint256",
                  "name": "previousTimestamp",
                  "type": "uint256"
                },
                {
                  "internalType": "uint256",
                  "name": "nextTimestamp",
                  "type": "uint256"
                }
              ],
              "internalType": "struct ReportData",
              "name": "report",
              "type": "tuple"
            },
            {
              "internalType": "uint256",
              "name": "attestationTimestamp",
              "type": "uint256"
            }
          ],
          "internalType": "struct OracleAttestationData",
          "name": "_attestData",
          "type": "tuple"
        },
        {
          "components": [
            {
              "internalType": "address",
              "name": "addr",
              "type": "address"
            },
            {
              "internalType": "uint256",
              "name": "power",
              "type": "uint256"
            }
          ],
          "internalType": "struct Validator[]",
          "name": "_currentValidatorSet",
          "type": "tuple[]"
        },
        {
          "components": [
            {
              "internalType": "uint8",
              "name": "v",
              "type": "uint8"
            },
            {
              "internalType": "bytes32",
              "name": "r",
              "type": "bytes32"
            },
            {
              "internalType": "bytes32",
              "name": "s",
              "type": "bytes32"
            }
          ],
          "internalType": "struct Signature[]",
          "name": "_sigs",
          "type": "tuple[]"
        }
      ],
      "name": "verifyOracleData",
      "outputs": [],
      "stateMutability": "view",
      "type": "function"
    }
  ],
  "bytecode": "0x608060405234801561001057600080fd5b50604051610ee8380380610ee883398101604081905261002f9161005d565b600080546001600160a01b039092166001600160a01b0319928316179055600580549091163317905561008d565b60006020828403121561006f57600080fd5b81516001600160a01b038116811461008657600080fd5b9392505050565b610e4c8061009c6000396000f3fe608060405234801561001057600080fd5b506004361061010b5760003560e01c806378efdb2b116100a2578063a36deea311610071578063a36deea314610218578063af082a7d1461023d578063ba95ec2714610246578063c19197d71461024f578063d5f394881461025d57600080fd5b806378efdb2b146101b657806384330d4c146101e357806391d7a4ab146101f65780639d08f4a91461020457600080fd5b80634f76f1ee116100de5780634f76f1ee1461018c5780635121b26e146101a35780636829505b146101b65780636cf6d675146101da57600080fd5b8063158ef93e14610110578063185bf52b146101395780634394f6f31461014e578063452a932014610161575b600080fd5b60055461012490600160a01b900460ff1681565b60405190151581526020015b60405180910390f35b61014c6101473660046108e6565b610270565b005b61014c61015c366004610912565b6102e5565b600054610174906001600160a01b031681565b6040516001600160a01b039091168152602001610130565b61019560045481565b604051908152602001610130565b61014c6101b13660046109d5565b610361565b61014c6101c4366004610a72565b506005805460ff60a81b1916600160a81b179055565b61019560035481565b61014c6101f1366004610aa8565b6104b3565b61014c6101c4366004610b3c565b60055461012490600160a81b900460ff1681565b61014c610226366004610b5e565b50506005805460ff60a81b1916600160a81b179055565b61019560015481565b61019560025481565b61014c610226366004610ba0565b600554610174906001600160a01b031681565b6000546001600160a01b0316331461029b576040516377b6878160e11b815260040160405180910390fd5b6003546103e86004546102ae9190610bec565b6102b89042610c0e565b10156102d757604051630e1b676960e11b815260040160405180910390fd5b600292909255600455600155565b6005546001600160a01b0316331461031057604051638b906c9760e01b815260040160405180910390fd5b600554600160a01b900460ff161561033a5760405162dc149f60e41b815260040160405180910390fd5b6005805460ff60a01b1916600160a01b179055600293909355600491909155600355600155565b8281146103815760405163c6617b7b60e01b815260040160405180910390fd5b60008484604051602001610396929190610c3e565b6040516020818303038152906040528051906020012090506001546103c06002546004548461060c565b146103de57604051630bbdaec960e11b815260040160405180910390fd5b60007f74656c6c6f7243757272656e744174746573746174696f6e0000000000000000873561041060208a018a610c95565b61041a9080610cb5565b61042760208c018c610c95565b602001358b806020019061043b9190610c95565b6040013561044c60208e018e610c95565b6060013561045d60208f018f610c95565b608001356001548f604001356040516020016104829a99989796959493929190610cfc565b6040516020818303038152906040528051906020012090506104aa868686868560025461065c565b50505050505050565b8281146104d35760405163c6617b7b60e01b815260040160405180910390fd5b6004548510156104f657604051630780635d60e41b815260040160405180910390fd5b8567ffffffffffffffff1660000361052157604051631876e19160e31b815260040160405180910390fd5b60008484604051602001610536929190610c3e565b6040516020818303038152906040528051906020012090506001546105606002546004548461060c565b1461057e57604051630bbdaec960e11b815260040160405180910390fd5b60006105958867ffffffffffffffff16888b61060c565b90506105a7868686868560025461065c565b600181905567ffffffffffffffff881660028190556004889055604080519182526020820189905281018a90527fe304b71f81a1aaf6d714401de28ba1ebdbb5ff9c5fee59ef2a6eb984f9e8da7e9060600160405180910390a1505050505050505050565b604080516918da1958dadc1bda5b9d60b21b6020820152908101849052606081018390526080810182905260009060a0016040516020818303038152906040528051906020012090509392505050565b6003546103e860045461066f9190610bec565b6106799042610c0e565b111561069857604051633979791960e21b815260040160405180910390fd5b6000805b868110156107c6578585828181106106b6576106b6610d67565b905060600201602001356000801b1480156106ee57508585828181106106de576106de610d67565b905060600201604001356000801b145b8015610722575085858281811061070757610707610d67565b61071d9260206060909202019081019150610d7d565b60ff16155b6107be5761076f88888381811061073b5761073b610d67565b6107519260206040909202019081019150610da0565b8588888581811061076457610764610d67565b9050606002016107e8565b61078c57604051638baa579f60e01b815260040160405180910390fd5b87878281811061079e5761079e610d67565b90506040020160200135826107b39190610dbb565b9150828210156107c6575b60010161069c565b50818110156104aa5760405163cabeb65560e01b815260040160405180910390fd5b60006002836040516020016107ff91815260200190565b60408051601f198184030181529082905261081991610dce565b602060405180830381855afa158015610836573d6000803e3d6000fd5b5050506040513d601f19601f820116820180604052508101906108599190610dfd565b925060018361086b6020850185610d7d565b604080516000815260208181018084529490945260ff9092168282015291850135606082015290840135608082015260a0016020604051602081039080840390855afa1580156108bf573d6000803e3d6000fd5b505050602060405103516001600160a01b0316846001600160a01b03161490509392505050565b6000806000606084860312156108fb57600080fd5b505081359360208301359350604090920135919050565b6000806000806080858703121561092857600080fd5b5050823594602084013594506040840135936060013592509050565b60008083601f84011261095657600080fd5b50813567ffffffffffffffff81111561096e57600080fd5b6020830191508360208260061b850101111561098957600080fd5b9250929050565b60008083601f8401126109a257600080fd5b50813567ffffffffffffffff8111156109ba57600080fd5b60208301915083602060608302850101111561098957600080fd5b6000806000806000606086880312156109ed57600080fd5b853567ffffffffffffffff80821115610a0557600080fd5b908701906060828a031215610a1957600080fd5b90955060208701359080821115610a2f57600080fd5b610a3b89838a01610944565b90965094506040880135915080821115610a5457600080fd5b50610a6188828901610990565b969995985093965092949392505050565b600060208284031215610a8457600080fd5b5035919050565b803567ffffffffffffffff81168114610aa357600080fd5b919050565b600080600080600080600060a0888a031215610ac357600080fd5b87359650610ad360208901610a8b565b955060408801359450606088013567ffffffffffffffff80821115610af757600080fd5b610b038b838c01610944565b909650945060808a0135915080821115610b1c57600080fd5b50610b298a828b01610990565b989b979a50959850939692959293505050565b600060208284031215610b4e57600080fd5b610b5782610a8b565b9392505050565b60008060208385031215610b7157600080fd5b823567ffffffffffffffff811115610b8857600080fd5b610b9485828601610990565b90969095509350505050565b60008060208385031215610bb357600080fd5b823567ffffffffffffffff811115610bca57600080fd5b610b9485828601610944565b634e487b7160e01b600052601160045260246000fd5b600082610c0957634e487b7160e01b600052601260045260246000fd5b500490565b81810381811115610c2157610c21610bd6565b92915050565b80356001600160a01b0381168114610aa357600080fd5b6020808252818101839052600090604080840186845b87811015610c88576001600160a01b03610c6d83610c27565b16835281850135858401529183019190830190600101610c54565b5090979650505050505050565b60008235609e19833603018112610cab57600080fd5b9190910192915050565b6000808335601e19843603018112610ccc57600080fd5b83018035915067ffffffffffffffff821115610ce757600080fd5b60200191503681900382131561098957600080fd5b60006101208c83528b6020840152806040840152898184015250610140898b828501376000838b01820152606083019890985250608081019590955260a085019390935260c084019190915260e0830152610100820152601f909201601f1916909101019392505050565b634e487b7160e01b600052603260045260246000fd5b600060208284031215610d8f57600080fd5b813560ff81168114610b5757600080fd5b600060208284031215610db257600080fd5b610b5782610c27565b80820180821115610c2157610c21610bd6565b6000825160005b81811015610def5760208186018101518583015201610dd5565b506000920191825250919050565b600060208284031215610e0f57600080fd5b505191905056fea2646970667358221220de24122de33d7e01f0465c5fb67329c198a48318226d2086f0a6014d8fefa4b564736f6c63430008160033",
  "linkReferences": {},
  "deployedLinkReferences": {}
}