{
  "_format": "hh-sol-artifact-1",
  "contractName": "SimpleLayerUser",
  "sourceName": "contracts/testing/SimpleLayerUser.sol",
  "abi": [
    {
      "inputs": [
        {
          "internalType": "address",
          "name": "_blobstreamO",
          "type": "address"
        },
        {
          "internalType": "bytes32",
          "name": "_queryId",
          "type": "bytes32"
        }
      ],
      "stateMutability": "nonpayable",
      "type": "constructor"
    },
    {
      "inputs": [],
      "name": "blobstreamO",
      "outputs": [
        {
          "internalType": "contract BlobstreamO",
          "name": "",
          "type": "address"
        }
      ],
      "stateMutability": "view",
      "type": "function"
    },
    {
      "inputs": [],
      "name": "getCurrentPriceData",
      "outputs": [
        {
          "components": [
            {
              "internalType": "uint256",
              "name": "price",
              "type": "uint256"
            },
            {
              "internalType": "uint256",
              "name": "timestamp",
              "type": "uint256"
            },
            {
              "internalType": "uint256",
              "name": "aggregatePower",
              "type": "uint256"
            },
            {
              "internalType": "uint256",
              "name": "previousTimestamp",
              "type": "uint256"
            },
            {
              "internalType": "uint256",
              "name": "nextTimestamp",
              "type": "uint256"
            }
          ],
          "internalType": "struct SimpleLayerUser.PriceData",
          "name": "",
          "type": "tuple"
        }
      ],
      "stateMutability": "view",
      "type": "function"
    },
    {
      "inputs": [],
      "name": "getValueCount",
      "outputs": [
        {
          "internalType": "uint256",
          "name": "",
          "type": "uint256"
        }
      ],
      "stateMutability": "view",
      "type": "function"
    },
    {
      "inputs": [
        {
          "internalType": "uint256",
          "name": "",
          "type": "uint256"
        }
      ],
      "name": "priceData",
      "outputs": [
        {
          "internalType": "uint256",
          "name": "price",
          "type": "uint256"
        },
        {
          "internalType": "uint256",
          "name": "timestamp",
          "type": "uint256"
        },
        {
          "internalType": "uint256",
          "name": "aggregatePower",
          "type": "uint256"
        },
        {
          "internalType": "uint256",
          "name": "previousTimestamp",
          "type": "uint256"
        },
        {
          "internalType": "uint256",
          "name": "nextTimestamp",
          "type": "uint256"
        }
      ],
      "stateMutability": "view",
      "type": "function"
    },
    {
      "inputs": [],
      "name": "queryId",
      "outputs": [
        {
          "internalType": "bytes32",
          "name": "",
          "type": "bytes32"
        }
      ],
      "stateMutability": "view",
      "type": "function"
    },
    {
      "inputs": [
        {
          "components": [
            {
              "internalType": "bytes32",
              "name": "queryId",
              "type": "bytes32"
            },
            {
              "components": [
                {
                  "internalType": "bytes",
                  "name": "value",
                  "type": "bytes"
                },
                {
                  "internalType": "uint256",
                  "name": "timestamp",
                  "type": "uint256"
                },
                {
                  "internalType": "uint256",
                  "name": "aggregatePower",
                  "type": "uint256"
                },
                {
                  "internalType": "uint256",
                  "name": "previousTimestamp",
                  "type": "uint256"
                },
                {
                  "internalType": "uint256",
                  "name": "nextTimestamp",
                  "type": "uint256"
                }
              ],
              "internalType": "struct ReportData",
              "name": "report",
              "type": "tuple"
            },
            {
              "internalType": "uint256",
              "name": "attestationTimestamp",
              "type": "uint256"
            }
          ],
          "internalType": "struct OracleAttestationData",
          "name": "_attestData",
          "type": "tuple"
        },
        {
          "components": [
            {
              "internalType": "address",
              "name": "addr",
              "type": "address"
            },
            {
              "internalType": "uint256",
              "name": "power",
              "type": "uint256"
            }
          ],
          "internalType": "struct Validator[]",
          "name": "_currentValidatorSet",
          "type": "tuple[]"
        },
        {
          "components": [
            {
              "internalType": "uint8",
              "name": "v",
              "type": "uint8"
            },
            {
              "internalType": "bytes32",
              "name": "r",
              "type": "bytes32"
            },
            {
              "internalType": "bytes32",
              "name": "s",
              "type": "bytes32"
            }
          ],
          "internalType": "struct Signature[]",
          "name": "_sigs",
          "type": "tuple[]"
        }
      ],
      "name": "updateOracleData",
      "outputs": [],
      "stateMutability": "nonpayable",
      "type": "function"
    }
  ],
  "bytecode": "0x608060405234801561001057600080fd5b5060405161084438038061084483398101604081905261002f91610058565b600080546001600160a01b0319166001600160a01b039390931692909217909155600255610092565b6000806040838503121561006b57600080fd5b82516001600160a01b038116811461008257600080fd5b6020939093015192949293505050565b6107a3806100a16000396000f3fe608060405234801561001057600080fd5b50600436106100725760003560e01c80634255757b116100505780634255757b146100b057806359afb465146100fa578063b1d1cec81461012557600080fd5b8063054493eb146100775780633f1be4d41461008c578063413a89b4146100a8575b600080fd5b61008a61008536600461041e565b610160565b005b61009560025481565b6040519081526020015b60405180910390f35b600154610095565b6100b86102f0565b60405161009f9190600060a082019050825182526020830151602083015260408301516040830152606083015160608301526080830151608083015292915050565b60005461010d906001600160a01b031681565b6040516001600160a01b03909116815260200161009f565b6101386101333660046104ec565b610391565b604080519586526020860194909452928401919091526060830152608082015260a00161009f565b6002548535146101a85760405162461bcd60e51b815260206004820152600f60248201526e125b9d985b1a59081c5d595c9e5259608a1b604482015260640160405180910390fd5b600054604051632890d93760e11b81526001600160a01b0390911690635121b26e906101e090889088908890889088906004016105d8565b60006040518083038186803b1580156101f857600080fd5b505afa15801561020c573d6000803e3d6000fd5b506000925061022191505060208701876106c9565b61022b90806106e9565b81019061023891906104ec565b905060016040518060a001604052808381526020018860400135815260200188806020019061026791906106c9565b60400135815260200188806020019061028091906106c9565b60600135815260200188806020019061029991906106c9565b60809081013590915282546001818101855560009485526020948590208451600590930201918255938301519381019390935560408201516002840155606082015160038401550151600490910155505050505050565b6103226040518060a0016040528060008152602001600081526020016000815260200160008152602001600081525090565b60018054610331908290610730565b8154811061034157610341610757565b90600052602060002090600502016040518060a001604052908160008201548152602001600182015481526020016002820154815260200160038201548152602001600482015481525050905090565b600181815481106103a157600080fd5b6000918252602090912060059091020180546001820154600283015460038401546004909401549294509092909185565b60008083601f8401126103e457600080fd5b50813567ffffffffffffffff8111156103fc57600080fd5b60208301915083602060608302850101111561041757600080fd5b9250929050565b60008060008060006060868803121561043657600080fd5b853567ffffffffffffffff8082111561044e57600080fd5b908701906060828a03121561046257600080fd5b9095506020870135908082111561047857600080fd5b818801915088601f83011261048c57600080fd5b81358181111561049b57600080fd5b8960208260061b85010111156104b057600080fd5b6020830196508095505060408801359150808211156104ce57600080fd5b506104db888289016103d2565b969995985093965092949392505050565b6000602082840312156104fe57600080fd5b5035919050565b81835281816020850137506000828201602090810191909152601f909101601f19169091010190565b818352600060208085019450826000805b8681101561057b5782356001600160a01b03811680821461055e578384fd5b89525082840135848901526040978801979092019160010161053f565b50959695505050505050565b818352600060208085019450826000805b8681101561057b57823560ff81168082146105b1578384fd5b89525082840135848901526040808401359089015260609788019790920191600101610598565b606081528535606082015260006020870135609e198836030181126105fc57600080fd5b606060808401528701803536829003601e1901811261061a57600080fd5b810160208101903567ffffffffffffffff81111561063757600080fd5b80360382131561064657600080fd5b60a060c086015261065c61016086018284610505565b915050602082013560e0850152604082013561010085015260608201356101208501526080820135610140850152604089013560a085015283810360208501526106a781888a61052e565b91505082810360408401526106bd818587610587565b98975050505050505050565b60008235609e198336030181126106df57600080fd5b9190910192915050565b6000808335601e1984360301811261070057600080fd5b83018035915067ffffffffffffffff82111561071b57600080fd5b60200191503681900382131561041757600080fd5b8181038181111561075157634e487b7160e01b600052601160045260246000fd5b92915050565b634e487b7160e01b600052603260045260246000fdfea2646970667358221220c30af6d474a1f8d6f550e280884f59d1741f2bf1edda189810667489790b151064736f6c63430008160033",
  "linkReferences": {},
  "deployedLinkReferences": {}
}