{
  "_format": "hh-sol-artifact-1",
  "contractName": "SimpleLayerUser",
  "sourceName": "contracts/testing/SimpleLayerUser.sol",
  "abi": [
    {
      "inputs": [
        {
          "internalType": "address",
          "name": "_blobstreamO",
          "type": "address"
        },
        {
          "internalType": "bytes32",
          "name": "_queryId",
          "type": "bytes32"
        }
      ],
      "stateMutability": "nonpayable",
      "type": "constructor"
    },
    {
      "inputs": [],
      "name": "blobstreamO",
      "outputs": [
        {
          "internalType": "contract BlobstreamO",
          "name": "",
          "type": "address"
        }
      ],
      "stateMutability": "view",
      "type": "function"
    },
    {
      "inputs": [],
      "name": "getCurrentPriceData",
      "outputs": [
        {
          "components": [
            {
              "internalType": "uint256",
              "name": "price",
              "type": "uint256"
            },
            {
              "internalType": "uint256",
              "name": "timestamp",
              "type": "uint256"
            },
            {
              "internalType": "uint256",
              "name": "aggregatePower",
              "type": "uint256"
            },
            {
              "internalType": "uint256",
              "name": "previousTimestamp",
              "type": "uint256"
            },
            {
              "internalType": "uint256",
              "name": "nextTimestamp",
              "type": "uint256"
            }
          ],
          "internalType": "struct SimpleLayerUser.PriceData",
          "name": "",
          "type": "tuple"
        }
      ],
      "stateMutability": "view",
      "type": "function"
    },
    {
      "inputs": [],
      "name": "getValueCount",
      "outputs": [
        {
          "internalType": "uint256",
          "name": "",
          "type": "uint256"
        }
      ],
      "stateMutability": "view",
      "type": "function"
    },
    {
      "inputs": [
        {
          "internalType": "uint256",
          "name": "",
          "type": "uint256"
        }
      ],
      "name": "priceData",
      "outputs": [
        {
          "internalType": "uint256",
          "name": "price",
          "type": "uint256"
        },
        {
          "internalType": "uint256",
          "name": "timestamp",
          "type": "uint256"
        },
        {
          "internalType": "uint256",
          "name": "aggregatePower",
          "type": "uint256"
        },
        {
          "internalType": "uint256",
          "name": "previousTimestamp",
          "type": "uint256"
        },
        {
          "internalType": "uint256",
          "name": "nextTimestamp",
          "type": "uint256"
        }
      ],
      "stateMutability": "view",
      "type": "function"
    },
    {
      "inputs": [],
      "name": "queryId",
      "outputs": [
        {
          "internalType": "bytes32",
          "name": "",
          "type": "bytes32"
        }
      ],
      "stateMutability": "view",
      "type": "function"
    },
    {
      "inputs": [
        {
          "components": [
            {
              "internalType": "bytes32",
              "name": "queryId",
              "type": "bytes32"
            },
            {
              "components": [
                {
                  "internalType": "bytes",
                  "name": "value",
                  "type": "bytes"
                },
                {
                  "internalType": "uint256",
                  "name": "timestamp",
                  "type": "uint256"
                },
                {
                  "internalType": "uint256",
                  "name": "aggregatePower",
                  "type": "uint256"
                },
                {
                  "internalType": "uint256",
                  "name": "previousTimestamp",
                  "type": "uint256"
                },
                {
                  "internalType": "uint256",
                  "name": "nextTimestamp",
                  "type": "uint256"
                }
              ],
              "internalType": "struct ReportData",
              "name": "report",
              "type": "tuple"
            },
            {
              "internalType": "uint256",
              "name": "attestationTimestamp",
              "type": "uint256"
            }
          ],
          "internalType": "struct OracleAttestationData",
          "name": "_attestData",
          "type": "tuple"
        },
        {
          "components": [
            {
              "internalType": "address",
              "name": "addr",
              "type": "address"
            },
            {
              "internalType": "uint256",
              "name": "power",
              "type": "uint256"
            }
          ],
          "internalType": "struct Validator[]",
          "name": "_currentValidatorSet",
          "type": "tuple[]"
        },
        {
          "components": [
            {
              "internalType": "uint8",
              "name": "v",
              "type": "uint8"
            },
            {
              "internalType": "bytes32",
              "name": "r",
              "type": "bytes32"
            },
            {
              "internalType": "bytes32",
              "name": "s",
              "type": "bytes32"
            }
          ],
          "internalType": "struct Signature[]",
          "name": "_sigs",
          "type": "tuple[]"
        }
      ],
      "name": "updateOracleData",
      "outputs": [],
      "stateMutability": "nonpayable",
      "type": "function"
    }
  ],
  "bytecode": "0x608060405234801561001057600080fd5b5060405161087f38038061087f83398101604081905261002f91610058565b600080546001600160a01b0319166001600160a01b039390931692909217909155600255610092565b6000806040838503121561006b57600080fd5b82516001600160a01b038116811461008257600080fd5b6020939093015192949293505050565b6107de806100a16000396000f3fe608060405234801561001057600080fd5b50600436106100725760003560e01c80634255757b116100505780634255757b146100b057806359afb465146100fa578063b1d1cec81461012557600080fd5b8063054493eb146100775780633f1be4d41461008c578063413a89b4146100a8575b600080fd5b61008a610085366004610459565b610160565b005b61009560025481565b6040519081526020015b60405180910390f35b600154610095565b6100b86102f0565b60405161009f9190600060a082019050825182526020830151602083015260408301516040830152606083015160608301526080830151608083015292915050565b60005461010d906001600160a01b031681565b6040516001600160a01b03909116815260200161009f565b610138610133366004610527565b6103cc565b604080519586526020860194909452928401919091526060830152608082015260a00161009f565b6002548535146101a85760405162461bcd60e51b815260206004820152600f60248201526e125b9d985b1a59081c5d595c9e5259608a1b604482015260640160405180910390fd5b600054604051632890d93760e11b81526001600160a01b0390911690635121b26e906101e09088908890889088908890600401610613565b60006040518083038186803b1580156101f857600080fd5b505afa15801561020c573d6000803e3d6000fd5b50600092506102219150506020870187610704565b61022b9080610724565b8101906102389190610527565b905060016040518060a00160405280838152602001886040013581526020018880602001906102679190610704565b6040013581526020018880602001906102809190610704565b6060013581526020018880602001906102999190610704565b60809081013590915282546001818101855560009485526020948590208451600590930201918255938301519381019390935560408201516002840155606082015160038401550151600490910155505050505050565b6103226040518060a0016040528060008152602001600081526020016000815260200160008152602001600081525090565b60015460000361035d576040518060a00160405280600081526020016000815260200160008152602001600081526020016000815250905090565b6001805461036c90829061076b565b8154811061037c5761037c610792565b90600052602060002090600502016040518060a001604052908160008201548152602001600182015481526020016002820154815260200160038201548152602001600482015481525050905090565b600181815481106103dc57600080fd5b6000918252602090912060059091020180546001820154600283015460038401546004909401549294509092909185565b60008083601f84011261041f57600080fd5b50813567ffffffffffffffff81111561043757600080fd5b60208301915083602060608302850101111561045257600080fd5b9250929050565b60008060008060006060868803121561047157600080fd5b853567ffffffffffffffff8082111561048957600080fd5b908701906060828a03121561049d57600080fd5b909550602087013590808211156104b357600080fd5b818801915088601f8301126104c757600080fd5b8135818111156104d657600080fd5b8960208260061b85010111156104eb57600080fd5b60208301965080955050604088013591508082111561050957600080fd5b506105168882890161040d565b969995985093965092949392505050565b60006020828403121561053957600080fd5b5035919050565b81835281816020850137506000828201602090810191909152601f909101601f19169091010190565b818352600060208085019450826000805b868110156105b65782356001600160a01b038116808214610599578384fd5b89525082840135848901526040978801979092019160010161057a565b50959695505050505050565b818352600060208085019450826000805b868110156105b657823560ff81168082146105ec578384fd5b895250828401358489015260408084013590890152606097880197909201916001016105d3565b606081528535606082015260006020870135609e1988360301811261063757600080fd5b606060808401528701803536829003601e1901811261065557600080fd5b810160208101903567ffffffffffffffff81111561067257600080fd5b80360382131561068157600080fd5b60a060c086015261069761016086018284610540565b915050602082013560e0850152604082013561010085015260608201356101208501526080820135610140850152604089013560a085015283810360208501526106e281888a610569565b91505082810360408401526106f88185876105c2565b98975050505050505050565b60008235609e1983360301811261071a57600080fd5b9190910192915050565b6000808335601e1984360301811261073b57600080fd5b83018035915067ffffffffffffffff82111561075657600080fd5b60200191503681900382131561045257600080fd5b8181038181111561078c57634e487b7160e01b600052601160045260246000fd5b92915050565b634e487b7160e01b600052603260045260246000fdfea26469706673582212208d3964dca40ad1e87db3e138333e1a9bcd499e2998de2311e552f20e6afa824764736f6c63430008160033",
  "linkReferences": {},
  "deployedLinkReferences": {}
}