{
  "_format": "hh-sol-artifact-1",
  "contractName": "TokenBridge",
  "sourceName": "contracts/token-bridge/TokenBridge.sol",
  "abi": [
    {
      "inputs": [
        {
          "internalType": "address",
          "name": "_token",
          "type": "address"
        },
        {
          "internalType": "address",
          "name": "_blobstream",
          "type": "address"
        },
        {
          "internalType": "address",
          "name": "_tellorFlex",
          "type": "address"
        }
      ],
      "stateMutability": "nonpayable",
      "type": "constructor"
    },
    {
      "anonymous": false,
      "inputs": [
        {
          "indexed": false,
          "internalType": "uint256",
          "name": "_depositId",
          "type": "uint256"
        },
        {
          "indexed": false,
          "internalType": "address",
          "name": "_sender",
          "type": "address"
        },
        {
          "indexed": false,
          "internalType": "string",
          "name": "_recipient",
          "type": "string"
        },
        {
          "indexed": false,
          "internalType": "uint256",
          "name": "_amount",
          "type": "uint256"
        }
      ],
      "name": "Deposit",
      "type": "event"
    },
    {
      "anonymous": false,
      "inputs": [
        {
          "indexed": false,
          "internalType": "uint256",
          "name": "_depositId",
          "type": "uint256"
        },
        {
          "indexed": false,
          "internalType": "string",
          "name": "_sender",
          "type": "string"
        },
        {
          "indexed": false,
          "internalType": "address",
          "name": "_recipient",
          "type": "address"
        },
        {
          "indexed": false,
          "internalType": "uint256",
          "name": "_amount",
          "type": "uint256"
        }
      ],
      "name": "Withdrawal",
      "type": "event"
    },
    {
      "inputs": [],
      "name": "DEPOSIT_LIMIT_DENOMINATOR",
      "outputs": [
        {
          "internalType": "uint256",
          "name": "",
          "type": "uint256"
        }
      ],
      "stateMutability": "view",
      "type": "function"
    },
    {
      "inputs": [],
      "name": "DEPOSIT_LIMIT_UPDATE_INTERVAL",
      "outputs": [
        {
          "internalType": "uint256",
          "name": "",
          "type": "uint256"
        }
      ],
      "stateMutability": "view",
      "type": "function"
    },
    {
      "inputs": [
        {
          "internalType": "uint256",
          "name": "_amount",
          "type": "uint256"
        }
      ],
      "name": "addStakingRewards",
      "outputs": [],
      "stateMutability": "nonpayable",
      "type": "function"
    },
    {
      "inputs": [],
      "name": "bridge",
      "outputs": [
        {
          "internalType": "contract BlobstreamO",
          "name": "",
          "type": "address"
        }
      ],
      "stateMutability": "view",
      "type": "function"
    },
    {
      "inputs": [
        {
          "internalType": "address",
          "name": "_recipient",
          "type": "address"
        }
      ],
      "name": "claimExtraWithdraw",
      "outputs": [],
      "stateMutability": "nonpayable",
      "type": "function"
    },
    {
      "inputs": [],
      "name": "depositId",
      "outputs": [
        {
          "internalType": "uint256",
          "name": "",
          "type": "uint256"
        }
      ],
      "stateMutability": "view",
      "type": "function"
    },
    {
      "inputs": [],
      "name": "depositLimit",
      "outputs": [
        {
          "internalType": "uint256",
          "name": "",
          "type": "uint256"
        }
      ],
      "stateMutability": "view",
      "type": "function"
    },
    {
      "inputs": [],
      "name": "depositLimitRecord",
      "outputs": [
        {
          "internalType": "uint256",
          "name": "",
          "type": "uint256"
        }
      ],
      "stateMutability": "view",
      "type": "function"
    },
    {
      "inputs": [],
      "name": "depositLimitUpdateTime",
      "outputs": [
        {
          "internalType": "uint256",
          "name": "",
          "type": "uint256"
        }
      ],
      "stateMutability": "view",
      "type": "function"
    },
    {
      "inputs": [
        {
          "internalType": "uint256",
          "name": "_amount",
          "type": "uint256"
        },
        {
          "internalType": "string",
          "name": "_layerRecipient",
          "type": "string"
        }
      ],
      "name": "depositToLayer",
      "outputs": [],
      "stateMutability": "nonpayable",
      "type": "function"
    },
    {
      "inputs": [
        {
          "internalType": "uint256",
          "name": "",
          "type": "uint256"
        }
      ],
      "name": "deposits",
      "outputs": [
        {
          "internalType": "address",
          "name": "sender",
          "type": "address"
        },
        {
          "internalType": "string",
          "name": "recipient",
          "type": "string"
        },
        {
          "internalType": "uint256",
          "name": "amount",
          "type": "uint256"
        },
        {
          "internalType": "uint256",
          "name": "blockHeight",
          "type": "uint256"
        }
      ],
      "stateMutability": "view",
      "type": "function"
    },
    {
      "inputs": [
        {
          "internalType": "bytes32",
          "name": "_queryId",
          "type": "bytes32"
        },
        {
          "internalType": "uint256",
          "name": "_timestamp",
          "type": "uint256"
        }
      ],
      "name": "getDataBefore",
      "outputs": [
        {
          "internalType": "bool",
          "name": "_ifRetrieve",
          "type": "bool"
        },
        {
          "internalType": "bytes",
          "name": "_value",
          "type": "bytes"
        },
        {
          "internalType": "uint256",
          "name": "_timestampRetrieved",
          "type": "uint256"
        }
      ],
      "stateMutability": "view",
      "type": "function"
    },
    {
      "inputs": [
        {
          "internalType": "bytes32",
          "name": "_queryId",
          "type": "bytes32"
        },
        {
          "internalType": "uint256",
          "name": "_timestamp",
          "type": "uint256"
        }
      ],
      "name": "getIndexForDataBefore",
      "outputs": [
        {
          "internalType": "bool",
          "name": "_found",
          "type": "bool"
        },
        {
          "internalType": "uint256",
          "name": "_index",
          "type": "uint256"
        }
      ],
      "stateMutability": "view",
      "type": "function"
    },
    {
      "inputs": [
        {
          "internalType": "bytes32",
          "name": "_queryId",
          "type": "bytes32"
        }
      ],
      "name": "getNewValueCountbyQueryId",
      "outputs": [
        {
          "internalType": "uint256",
          "name": "",
          "type": "uint256"
        }
      ],
      "stateMutability": "view",
      "type": "function"
    },
    {
      "inputs": [
        {
          "internalType": "bytes32",
          "name": "_queryId",
          "type": "bytes32"
        },
        {
          "internalType": "uint256",
          "name": "_timestamp",
          "type": "uint256"
        }
      ],
      "name": "getReporterByTimestamp",
      "outputs": [
        {
          "internalType": "address",
          "name": "",
          "type": "address"
        }
      ],
      "stateMutability": "view",
      "type": "function"
    },
    {
      "inputs": [],
      "name": "getTimeOfLastNewValue",
      "outputs": [
        {
          "internalType": "uint256",
          "name": "",
          "type": "uint256"
        }
      ],
      "stateMutability": "view",
      "type": "function"
    },
    {
      "inputs": [
        {
          "internalType": "bytes32",
          "name": "_queryId",
          "type": "bytes32"
        },
        {
          "internalType": "uint256",
          "name": "_index",
          "type": "uint256"
        }
      ],
      "name": "getTimestampbyQueryIdandIndex",
      "outputs": [
        {
          "internalType": "uint256",
          "name": "",
          "type": "uint256"
        }
      ],
      "stateMutability": "view",
      "type": "function"
    },
    {
      "inputs": [
        {
          "internalType": "bytes32",
          "name": "_queryId",
          "type": "bytes32"
        },
        {
          "internalType": "uint256",
          "name": "_timestamp",
          "type": "uint256"
        }
      ],
      "name": "isInDispute",
      "outputs": [
        {
          "internalType": "bool",
          "name": "",
          "type": "bool"
        }
      ],
      "stateMutability": "view",
      "type": "function"
    },
    {
      "inputs": [],
      "name": "tellorFlex",
      "outputs": [
        {
          "internalType": "contract ITellorFlex",
          "name": "",
          "type": "address"
        }
      ],
      "stateMutability": "view",
      "type": "function"
    },
    {
      "inputs": [],
      "name": "token",
      "outputs": [
        {
          "internalType": "contract ITellorMaster",
          "name": "",
          "type": "address"
        }
      ],
      "stateMutability": "view",
      "type": "function"
    },
    {
      "inputs": [
        {
          "internalType": "address",
          "name": "",
          "type": "address"
        }
      ],
      "name": "tokensToClaim",
      "outputs": [
        {
          "internalType": "uint256",
          "name": "",
          "type": "uint256"
        }
      ],
      "stateMutability": "view",
      "type": "function"
    },
    {
      "inputs": [],
      "name": "verify",
      "outputs": [
        {
          "internalType": "uint256",
          "name": "",
          "type": "uint256"
        }
      ],
      "stateMutability": "pure",
      "type": "function"
    },
    {
      "inputs": [
        {
          "components": [
            {
              "internalType": "bytes32",
              "name": "queryId",
              "type": "bytes32"
            },
            {
              "components": [
                {
                  "internalType": "bytes",
                  "name": "value",
                  "type": "bytes"
                },
                {
                  "internalType": "uint256",
                  "name": "timestamp",
                  "type": "uint256"
                },
                {
                  "internalType": "uint256",
                  "name": "aggregatePower",
                  "type": "uint256"
                },
                {
                  "internalType": "uint256",
                  "name": "previousTimestamp",
                  "type": "uint256"
                },
                {
                  "internalType": "uint256",
                  "name": "nextTimestamp",
                  "type": "uint256"
                }
              ],
              "internalType": "struct ReportData",
              "name": "report",
              "type": "tuple"
            },
            {
              "internalType": "uint256",
              "name": "attestationTimestamp",
              "type": "uint256"
            }
          ],
          "internalType": "struct OracleAttestationData",
          "name": "_attestData",
          "type": "tuple"
        },
        {
          "components": [
            {
              "internalType": "address",
              "name": "addr",
              "type": "address"
            },
            {
              "internalType": "uint256",
              "name": "power",
              "type": "uint256"
            }
          ],
          "internalType": "struct Validator[]",
          "name": "_valset",
          "type": "tuple[]"
        },
        {
          "components": [
            {
              "internalType": "uint8",
              "name": "v",
              "type": "uint8"
            },
            {
              "internalType": "bytes32",
              "name": "r",
              "type": "bytes32"
            },
            {
              "internalType": "bytes32",
              "name": "s",
              "type": "bytes32"
            }
          ],
          "internalType": "struct Signature[]",
          "name": "_sigs",
          "type": "tuple[]"
        },
        {
          "internalType": "uint256",
          "name": "_depositId",
          "type": "uint256"
        }
      ],
      "name": "withdrawFromLayer",
      "outputs": [],
      "stateMutability": "nonpayable",
      "type": "function"
    },
    {
      "inputs": [
        {
          "internalType": "uint256",
          "name": "",
          "type": "uint256"
        }
      ],
      "name": "withdrawalClaimed",
      "outputs": [
        {
          "internalType": "bool",
          "name": "",
          "type": "bool"
        }
      ],
      "stateMutability": "view",
      "type": "function"
    }
  ],
  "bytecode": "0x60c0604052600060a0908152620000189060e062000110565b60408051601f198184030181529082905262000037916020016200012c565b60408051601f19818403018152919052805160209091012060005560056080523480156200006457600080fd5b506040516200220938038062002209833981016040819052620000879162000192565b600280546001600160a01b03199081166001600160a01b039384161790915560018054821694831694909417909355600380549093169116179055620001dc565b6000815180845260005b81811015620000f057602081850181015186830182015201620000d2565b506000602082860101526020601f19601f83011685010191505092915050565b602081526000620001256020830184620000c8565b9392505050565b60408152601360408201527f54656c6c6f724f7261636c6541646472657373000000000000000000000000006060820152608060208201526000620001256080830184620000c8565b80516001600160a01b03811681146200018d57600080fd5b919050565b600080600060608486031215620001a857600080fd5b620001b38462000175565b9250620001c36020850162000175565b9150620001d36040850162000175565b90509250925092565b60805161200362000206600039600081816102e001528181611428015261162201526120036000f3fe608060405234801561001057600080fd5b50600436106101985760003560e01c8063b8eed263116100e3578063e5d8b9dc1161008c578063fa3c06d211610066578063fa3c06d21461039c578063fc0c546a146103a5578063fc735e99146103b857600080fd5b8063e5d8b9dc1461036e578063e78cea9214610381578063ecf708581461039457600080fd5b8063d9c51cd4116100bd578063d9c51cd41461031d578063e07c548614610330578063e513730b1461035b57600080fd5b8063b8eed263146102db578063c0f95d5214610302578063ce5e11bf1461030a57600080fd5b8063604f918f116101455780639852099c1161011f5780639852099c1461028d578063a792765f14610296578063b02c43d0146102b857600080fd5b8063604f918f1461026857806377b03e0d146102715780639410e01f1461028457600080fd5b80632944908511610176578063294490851461021857806344e87f91146102425780635f96ca6c1461025557600080fd5b80631d8218541461019d5780631e868334146101d5578063285bbd4814610203575b600080fd5b6101c06101ab366004611656565b60076020526000908152604090205460ff1681565b60405190151581526020015b60405180910390f35b6101f56101e3366004611687565b60086020526000908152604090205481565b6040519081526020016101cc565b610216610211366004611687565b6103c0565b005b61022b6102263660046116ab565b61068c565b6040805192151583526020830191909152016101cc565b6101c06102503660046116ab565b610710565b610216610263366004611792565b61078e565b6101f561a8c081565b6101f561027f366004611656565b610a2a565b6101f560065481565b6101f560045481565b6102a96102a43660046116ab565b610a98565b6040516101cc93929190611829565b6102cb6102c6366004611656565b610b55565b6040516101cc9493929190611854565b6101f57f000000000000000000000000000000000000000000000000000000000000000081565b6101f5610c10565b6101f56103183660046116ab565b610c83565b61021661032b366004611656565b610cf8565b61034361033e3660046116ab565b610d77565b6040516001600160a01b0390911681526020016101cc565b600254610343906001600160a01b031681565b61021661037c3660046118ce565b610dec565b600354610343906001600160a01b031681565b6101f56113f7565b6101f560055481565b600154610343906001600160a01b031681565b61270f6101f5565b6001600160a01b038116600090815260086020526040902054806104205760405162461bcd60e51b81526020600482015260126024820152710616d6f756e74206d757374206265203e20360741b60448201526064015b60405180910390fd5b600061042a6114ad565b90506000811161048a5760405162461bcd60e51b815260206004820152602560248201527f546f6b656e4272696467653a206465706f7369744c696d6974206d7573742062604482015264065203e20360dc1b6064820152608401610417565b81811015610598576001600160a01b0383166000908152600860205260409020546104b69082906119ba565b6001600160a01b038481166000818152600860205260409081902093909355600154925163a9059cbb60e01b8152600481019190915260248101849052929350839291169063a9059cbb906044016020604051808303816000875af1158015610523573d6000803e3d6000fd5b505050506040513d601f19601f8201168201806040525081019061054791906119e2565b6105935760405162461bcd60e51b815260206004820152601c60248201527f546f6b656e4272696467653a207472616e73666572206661696c6564000000006044820152606401610417565b610670565b6001600160a01b0383811660008181526008602052604080822091909155600154905163a9059cbb60e01b81526004810192909252602482018590529091169063a9059cbb906044016020604051808303816000875af1158015610600573d6000803e3d6000fd5b505050506040513d601f19601f8201168201806040525081019061062491906119e2565b6106705760405162461bcd60e51b815260206004820152601c60248201527f546f6b656e4272696467653a207472616e73666572206661696c6564000000006044820152606401610417565b816006600082825461068291906119ba565b9091555050505050565b600254604051632944908560e01b8152600481018490526024810183905260009182916001600160a01b03909116906329449085906044016040805180830381865afa1580156106e0573d6000803e3d6000fd5b505050506040513d601f19601f8201168201806040525081019061070491906119fd565b915091505b9250929050565b6002546040516344e87f9160e01b815260048101849052602481018390526000916001600160a01b0316906344e87f9190604401602060405180830381865afa158015610761573d6000803e3d6000fd5b505050506040513d601f19601f8201168201806040525081019061078591906119e2565b90505b92915050565b600082116107f15760405162461bcd60e51b815260206004820152602a60248201527f546f6b656e4272696467653a20616d6f756e74206d75737420626520677265616044820152690746572207468616e20360b41b6064820152608401610417565b6107f96114ad565b82111561086e5760405162461bcd60e51b815260206004820152603960248201527f546f6b656e4272696467653a20616d6f756e742065786365656473206465706f60448201527f736974206c696d697420666f722074696d6520706572696f64000000000000006064820152608401610417565b6001546040516323b872dd60e01b8152336004820152306024820152604481018490526001600160a01b03909116906323b872dd906064016020604051808303816000875af11580156108c5573d6000803e3d6000fd5b505050506040513d601f19601f820116820180604052508101906108e991906119e2565b6109355760405162461bcd60e51b815260206004820181905260248201527f546f6b656e4272696467653a207472616e7366657246726f6d206661696c65646044820152606401610417565b6004805490600061094583611a29565b9190505550816006600082825461095c91906119ba565b9091555050604080516080810182523381526020808201848152828401869052436060840152600454600090815260099092529290208151815473ffffffffffffffffffffffffffffffffffffffff19166001600160a01b03909116178155915190919060018201906109cf9082611acd565b5060408201518160020155606082015181600301559050507faeefb35576420985ebd638138c7f004039a2154c74d548ae18603b54a5f1bdc5600454338385604051610a1e9493929190611b8d565b60405180910390a15050565b6002546040516377b03e0d60e01b8152600481018390526000916001600160a01b0316906377b03e0d90602401602060405180830381865afa158015610a74573d6000803e3d6000fd5b505050506040513d601f19601f820116820180604052508101906107889190611bc6565b60006060600080548503610acf57604080513060208201526001910160405160208183030381529060405242925092509250610b4e565b60025460405163a792765f60e01b815260048101879052602481018690526001600160a01b039091169063a792765f90604401600060405180830381865afa158015610b1f573d6000803e3d6000fd5b505050506040513d6000823e601f3d908101601f19168201604052610b479190810190611bdf565b9250925092505b9250925092565b600960205260009081526040902080546001820180546001600160a01b039092169291610b8190611a42565b80601f0160208091040260200160405190810160405280929190818152602001828054610bad90611a42565b8015610bfa5780601f10610bcf57610100808354040283529160200191610bfa565b820191906000526020600020905b815481529060010190602001808311610bdd57829003601f168201915b5050505050908060020154908060030154905084565b6002546040805163607caea960e11b815290516000926001600160a01b03169163c0f95d529160048083019260209291908290030181865afa158015610c5a573d6000803e3d6000fd5b505050506040513d601f19601f82011682018060405250810190610c7e9190611bc6565b905090565b60025460405163ce5e11bf60e01b815260048101849052602481018390526000916001600160a01b03169063ce5e11bf90604401602060405180830381865afa158015610cd4573d6000803e3d6000fd5b505050506040513d601f19601f820116820180604052508101906107859190611bc6565b6001546040516323b872dd60e01b8152336004820152306024820152604481018390526001600160a01b03909116906323b872dd906064016020604051808303816000875af1158015610d4f573d6000803e3d6000fd5b505050506040513d601f19601f82011682018060405250810190610d7391906119e2565b5050565b60025460405163703e2a4360e11b815260048101849052602481018390526000916001600160a01b03169063e07c548690604401602060405180830381865afa158015610dc8573d6000803e3d6000fd5b505050506040513d601f19601f820116820180604052508101906107859190611c72565b604080516000602082015290810182905260600160408051601f1981840301815290829052610e1d91602001611c8f565b60405160208183030381529060405280519060200120866000013514610e855760405162461bcd60e51b815260206004820152601c60248201527f546f6b656e4272696467653a20696e76616c69642071756572794964000000006044820152606401610417565b60008181526007602052604090205460ff1615610ef45760405162461bcd60e51b815260206004820152602760248201527f546f6b656e4272696467653a207769746864726177616c20616c72656164792060448201526618db185a5b595960ca1b6064820152608401610417565b61a8c06103e8610f076020890189611cc2565b60200135610f159190611ce2565b610f1f90426119ba565b11610f775760405162461bcd60e51b815260206004820152602260248201527f546f6b656e4272696467653a207072656d61747572652061747465737461746960448201526137b760f11b6064820152608401610417565b61a8c0610f8a6103e86040890135611ce2565b610f9490426119ba565b10610fe15760405162461bcd60e51b815260206004820181905260248201527f546f6b656e4272696467653a206174746573746174696f6e20746f6f206f6c646044820152606401610417565b600354604051632890d93760e11b81526001600160a01b0390911690635121b26e906110199089908990899089908990600401611ddd565b60006040518083038186803b15801561103157600080fd5b505afa158015611045573d6000803e3d6000fd5b50505050600360009054906101000a90046001600160a01b03166001600160a01b031663ba95ec276040518163ffffffff1660e01b8152600401602060405180830381865afa15801561109c573d6000803e3d6000fd5b505050506040513d601f19601f820116820180604052508101906110c09190611bc6565b6110cd6020880188611cc2565b6040013510156111535760405162461bcd60e51b815260206004820152604560248201527f5265706f72742061676772656761746520706f776572206d757374206265206760448201527f726561746572207468616e206f7220657175616c20746f205f6d696e696d756d6064820152642837bbb2b960d91b608482015260a401610417565b60008181526007602090815260408220805460ff191660011790558190819061117e908a018a611cc2565b6111889080611ece565b8101906111959190611f15565b9194509250905060006111ad8264e8d4a51000611f6e565b905060006111b96114ad565b9050818110156112d2576111cd81836119ba565b6001600160a01b0386166000908152600860205260409020546111f09190611f85565b6001600160a01b038681166000818152600860205260409081902093909355600154925163a9059cbb60e01b8152600481019190915260248101849052929350839291169063a9059cbb906044016020604051808303816000875af115801561125d573d6000803e3d6000fd5b505050506040513d601f19601f8201168201806040525081019061128191906119e2565b6112cd5760405162461bcd60e51b815260206004820152601c60248201527f546f6b656e4272696467653a207472616e73666572206661696c6564000000006044820152606401610417565b611395565b60015460405163a9059cbb60e01b81526001600160a01b038781166004830152602482018590529091169063a9059cbb906044016020604051808303816000875af1158015611325573d6000803e3d6000fd5b505050506040513d601f19601f8201168201806040525081019061134991906119e2565b6113955760405162461bcd60e51b815260206004820152601c60248201527f546f6b656e4272696467653a207472616e73666572206661696c6564000000006044820152606401610417565b81600660008282546113a791906119ba565b90915550506040517f1c25a916bf61b55f3abb9060e620d13d6937f8c2ab2b7a16be824ffde44acb2f906113e2908890879089908790611f98565b60405180910390a15050505050505050505050565b600061a8c06005544261140a91906119ba565b11156114a6576001546040516370a0823160e01b81523060048201527f0000000000000000000000000000000000000000000000000000000000000000916001600160a01b0316906370a0823190602401602060405180830381865afa158015611478573d6000803e3d6000fd5b505050506040513d601f19601f8201168201806040525081019061149c9190611bc6565b610c7e9190611ce2565b5060065490565b600061a8c0600554426114c091906119ba565b11156114a6576001546040516370a0823160e01b81523060048201526000916001600160a01b0316906370a0823190602401602060405180830381865afa15801561150f573d6000803e3d6000fd5b505050506040513d601f19601f820116820180604052508101906115339190611bc6565b905068056bc75e2d6310000081101561161d57600160009054906101000a90046001600160a01b03166001600160a01b031663b67f8cbd6040518163ffffffff1660e01b8152600401600060405180830381600087803b15801561159657600080fd5b505af11580156115aa573d6000803e3d6000fd5b50506001546040516370a0823160e01b81523060048201526001600160a01b0390911692506370a082319150602401602060405180830381865afa1580156115f6573d6000803e3d6000fd5b505050506040513d601f19601f8201168201806040525081019061161a9190611bc6565b90505b6116477f000000000000000000000000000000000000000000000000000000000000000082611ce2565b60065550426005555060065490565b60006020828403121561166857600080fd5b5035919050565b6001600160a01b038116811461168457600080fd5b50565b60006020828403121561169957600080fd5b81356116a48161166f565b9392505050565b600080604083850312156116be57600080fd5b50508035926020909101359150565b634e487b7160e01b600052604160045260246000fd5b604051601f8201601f1916810167ffffffffffffffff8111828210171561170c5761170c6116cd565b604052919050565b600067ffffffffffffffff82111561172e5761172e6116cd565b50601f01601f191660200190565b600082601f83011261174d57600080fd5b813561176061175b82611714565b6116e3565b81815284602083860101111561177557600080fd5b816020850160208301376000918101602001919091529392505050565b600080604083850312156117a557600080fd5b82359150602083013567ffffffffffffffff8111156117c357600080fd5b6117cf8582860161173c565b9150509250929050565b60005b838110156117f45781810151838201526020016117dc565b50506000910152565b600081518084526118158160208601602086016117d9565b601f01601f19169290920160200192915050565b831515815260606020820152600061184460608301856117fd565b9050826040830152949350505050565b6001600160a01b038516815260806020820152600061187660808301866117fd565b6040830194909452506060015292915050565b60008083601f84011261189b57600080fd5b50813567ffffffffffffffff8111156118b357600080fd5b60208301915083602060608302850101111561070957600080fd5b600080600080600080608087890312156118e757600080fd5b863567ffffffffffffffff808211156118ff57600080fd5b908801906060828b03121561191357600080fd5b9096506020880135908082111561192957600080fd5b818901915089601f83011261193d57600080fd5b81358181111561194c57600080fd5b8a60208260061b850101111561196157600080fd5b60208301975080965050604089013591508082111561197f57600080fd5b5061198c89828a01611889565b979a9699509497949695606090950135949350505050565b634e487b7160e01b600052601160045260246000fd5b81810381811115610788576107886119a4565b805180151581146119dd57600080fd5b919050565b6000602082840312156119f457600080fd5b610785826119cd565b60008060408385031215611a1057600080fd5b611a19836119cd565b9150602083015190509250929050565b600060018201611a3b57611a3b6119a4565b5060010190565b600181811c90821680611a5657607f821691505b602082108103611a7657634e487b7160e01b600052602260045260246000fd5b50919050565b601f821115611ac8576000816000526020600020601f850160051c81016020861015611aa55750805b601f850160051c820191505b81811015611ac457828155600101611ab1565b5050505b505050565b815167ffffffffffffffff811115611ae757611ae76116cd565b611afb81611af58454611a42565b84611a7c565b602080601f831160018114611b305760008415611b185750858301515b600019600386901b1c1916600185901b178555611ac4565b600085815260208120601f198616915b82811015611b5f57888601518255948401946001909101908401611b40565b5085821015611b7d5787850151600019600388901b60f8161c191681555b5050505050600190811b01905550565b8481526001600160a01b0384166020820152608060408201526000611bb560808301856117fd565b905082606083015295945050505050565b600060208284031215611bd857600080fd5b5051919050565b600080600060608486031215611bf457600080fd5b611bfd846119cd565b9250602084015167ffffffffffffffff811115611c1957600080fd5b8401601f81018613611c2a57600080fd5b8051611c3861175b82611714565b818152876020838501011115611c4d57600080fd5b611c5e8260208301602086016117d9565b809450505050604084015190509250925092565b600060208284031215611c8457600080fd5b81516116a48161166f565b60408152600960408201526854524242726964676560b81b606082015260806020820152600061078560808301846117fd565b60008235609e19833603018112611cd857600080fd5b9190910192915050565b600082611cff57634e487b7160e01b600052601260045260246000fd5b500490565b81835281816020850137506000828201602090810191909152601f909101601f19169091010190565b8183526000602080850194508260005b85811015611d75578135611d508161166f565b6001600160a01b03168752818301358388015260409687019690910190600101611d3d565b509495945050505050565b818352600060208085019450826000805b86811015611dd157823560ff8116808214611daa578384fd5b89525082840135848901526040808401359089015260609788019790920191600101611d91565b50959695505050505050565b606081528535606082015260006020870135609e19883603018112611e0157600080fd5b606060808401528701803536829003601e19018112611e1f57600080fd5b810160208101903567ffffffffffffffff811115611e3c57600080fd5b803603821315611e4b57600080fd5b60a060c0860152611e6161016086018284611d04565b915050602082013560e0850152604082013561010085015260608201356101208501526080820135610140850152604089013560a08501528381036020850152611eac81888a611d2d565b9150508281036040840152611ec2818587611d80565b98975050505050505050565b6000808335601e19843603018112611ee557600080fd5b83018035915067ffffffffffffffff821115611f0057600080fd5b60200191503681900382131561070957600080fd5b600080600060608486031215611f2a57600080fd5b8335611f358161166f565b9250602084013567ffffffffffffffff811115611f5157600080fd5b611f5d8682870161173c565b925050604084013590509250925092565b8082028115828204841417610788576107886119a4565b80820180821115610788576107886119a4565b848152608060208201526000611fb160808301866117fd565b6001600160a01b0394909416604083015250606001529291505056fea2646970667358221220c5321c396efe5a5e32a51f85aa62d32235dc7da3a379517b788e345d9e9d4c7064736f6c63430008160033",
  "linkReferences": {},
  "deployedLinkReferences": {}
}