{
  "_format": "hh-sol-artifact-1",
  "contractName": "TokenBridge",
  "sourceName": "contracts/token-bridge/TokenBridge.sol",
  "abi": [
    {
      "inputs": [
        {
          "internalType": "address",
          "name": "_token",
          "type": "address"
        },
        {
          "internalType": "address",
          "name": "_blobstream",
          "type": "address"
        },
        {
          "internalType": "address",
          "name": "_tellorFlex",
          "type": "address"
        }
      ],
      "stateMutability": "nonpayable",
      "type": "constructor"
    },
    {
      "anonymous": false,
      "inputs": [
        {
          "indexed": false,
          "internalType": "enum TokenBridge.BridgeState",
          "name": "_newState",
          "type": "uint8"
        }
      ],
      "name": "BridgeStateUpdated",
      "type": "event"
    },
    {
      "anonymous": false,
      "inputs": [
        {
          "indexed": false,
          "internalType": "uint256",
          "name": "_depositId",
          "type": "uint256"
        },
        {
          "indexed": false,
          "internalType": "address",
          "name": "_sender",
          "type": "address"
        },
        {
          "indexed": false,
          "internalType": "string",
          "name": "_recipient",
          "type": "string"
        },
        {
          "indexed": false,
          "internalType": "uint256",
          "name": "_amount",
          "type": "uint256"
        },
        {
          "indexed": false,
          "internalType": "uint256",
          "name": "_tip",
          "type": "uint256"
        }
      ],
      "name": "Deposit",
      "type": "event"
    },
    {
      "anonymous": false,
      "inputs": [
        {
          "indexed": false,
          "internalType": "address",
          "name": "_recipient",
          "type": "address"
        },
        {
          "indexed": false,
          "internalType": "uint256",
          "name": "_amount",
          "type": "uint256"
        }
      ],
      "name": "ExtraWithdrawClaimed",
      "type": "event"
    },
    {
      "anonymous": false,
      "inputs": [
        {
          "indexed": false,
          "internalType": "uint256",
          "name": "_depositId",
          "type": "uint256"
        },
        {
          "indexed": false,
          "internalType": "string",
          "name": "_sender",
          "type": "string"
        },
        {
          "indexed": false,
          "internalType": "address",
          "name": "_recipient",
          "type": "address"
        },
        {
          "indexed": false,
          "internalType": "uint256",
          "name": "_amount",
          "type": "uint256"
        }
      ],
      "name": "Withdraw",
      "type": "event"
    },
    {
      "inputs": [],
      "name": "DEPOSIT_LIMIT_DENOMINATOR",
      "outputs": [
        {
          "internalType": "uint256",
          "name": "",
          "type": "uint256"
        }
      ],
      "stateMutability": "view",
      "type": "function"
    },
    {
      "inputs": [],
      "name": "PAUSE_PERIOD",
      "outputs": [
        {
          "internalType": "uint256",
          "name": "",
          "type": "uint256"
        }
      ],
      "stateMutability": "view",
      "type": "function"
    },
    {
      "inputs": [],
      "name": "PAUSE_TRIBUTE_AMOUNT",
      "outputs": [
        {
          "internalType": "uint256",
          "name": "",
          "type": "uint256"
        }
      ],
      "stateMutability": "view",
      "type": "function"
    },
    {
      "inputs": [],
      "name": "TWELVE_HOUR_UPDATE_INTERVAL",
      "outputs": [
        {
          "internalType": "uint256",
          "name": "",
          "type": "uint256"
        }
      ],
      "stateMutability": "view",
      "type": "function"
    },
    {
      "inputs": [],
      "name": "WITHDRAW_LIMIT_DENOMINATOR",
      "outputs": [
        {
          "internalType": "uint256",
          "name": "",
          "type": "uint256"
        }
      ],
      "stateMutability": "view",
      "type": "function"
    },
    {
      "inputs": [
        {
          "internalType": "uint256",
          "name": "_amount",
          "type": "uint256"
        }
      ],
      "name": "addStakingRewards",
      "outputs": [],
      "stateMutability": "nonpayable",
      "type": "function"
    },
    {
      "inputs": [],
      "name": "bridge",
      "outputs": [
        {
          "internalType": "contract IBlobstreamO",
          "name": "",
          "type": "address"
        }
      ],
      "stateMutability": "view",
      "type": "function"
    },
    {
      "inputs": [],
      "name": "bridgeState",
      "outputs": [
        {
          "internalType": "enum TokenBridge.BridgeState",
          "name": "",
          "type": "uint8"
        }
      ],
      "stateMutability": "view",
      "type": "function"
    },
    {
      "inputs": [],
      "name": "bridgeStateUpdateTime",
      "outputs": [
        {
          "internalType": "uint256",
          "name": "",
          "type": "uint256"
        }
      ],
      "stateMutability": "view",
      "type": "function"
    },
    {
      "inputs": [
        {
          "internalType": "address",
          "name": "_recipient",
          "type": "address"
        }
      ],
      "name": "claimExtraWithdraw",
      "outputs": [],
      "stateMutability": "nonpayable",
      "type": "function"
    },
    {
      "inputs": [],
      "name": "depositId",
      "outputs": [
        {
          "internalType": "uint256",
          "name": "",
          "type": "uint256"
        }
      ],
      "stateMutability": "view",
      "type": "function"
    },
    {
      "inputs": [],
      "name": "depositLimit",
      "outputs": [
        {
          "internalType": "uint256",
          "name": "",
          "type": "uint256"
        }
      ],
      "stateMutability": "view",
      "type": "function"
    },
    {
      "inputs": [],
      "name": "depositLimitRecord",
      "outputs": [
        {
          "internalType": "uint256",
          "name": "",
          "type": "uint256"
        }
      ],
      "stateMutability": "view",
      "type": "function"
    },
    {
      "inputs": [],
      "name": "depositLimitUpdateTime",
      "outputs": [
        {
          "internalType": "uint256",
          "name": "",
          "type": "uint256"
        }
      ],
      "stateMutability": "view",
      "type": "function"
    },
    {
      "inputs": [
        {
          "internalType": "uint256",
          "name": "_amount",
          "type": "uint256"
        },
        {
          "internalType": "uint256",
          "name": "_tip",
          "type": "uint256"
        },
        {
          "internalType": "string",
          "name": "_layerRecipient",
          "type": "string"
        }
      ],
      "name": "depositToLayer",
      "outputs": [],
      "stateMutability": "nonpayable",
      "type": "function"
    },
    {
      "inputs": [
        {
          "internalType": "uint256",
          "name": "",
          "type": "uint256"
        }
      ],
      "name": "deposits",
      "outputs": [
        {
          "internalType": "address",
          "name": "sender",
          "type": "address"
        },
        {
          "internalType": "string",
          "name": "recipient",
          "type": "string"
        },
        {
          "internalType": "uint256",
          "name": "amount",
          "type": "uint256"
        },
        {
          "internalType": "uint256",
          "name": "tip",
          "type": "uint256"
        },
        {
          "internalType": "uint256",
          "name": "blockHeight",
          "type": "uint256"
        }
      ],
      "stateMutability": "view",
      "type": "function"
    },
    {
      "inputs": [
        {
          "internalType": "bytes32",
          "name": "_queryId",
          "type": "bytes32"
        },
        {
          "internalType": "uint256",
          "name": "_timestamp",
          "type": "uint256"
        }
      ],
      "name": "getDataBefore",
      "outputs": [
        {
          "internalType": "bool",
          "name": "_ifRetrieve",
          "type": "bool"
        },
        {
          "internalType": "bytes",
          "name": "_value",
          "type": "bytes"
        },
        {
          "internalType": "uint256",
          "name": "_timestampRetrieved",
          "type": "uint256"
        }
      ],
      "stateMutability": "view",
      "type": "function"
    },
    {
      "inputs": [
        {
          "internalType": "bytes32",
          "name": "_queryId",
          "type": "bytes32"
        },
        {
          "internalType": "uint256",
          "name": "_timestamp",
          "type": "uint256"
        }
      ],
      "name": "getIndexForDataBefore",
      "outputs": [
        {
          "internalType": "bool",
          "name": "_found",
          "type": "bool"
        },
        {
          "internalType": "uint256",
          "name": "_index",
          "type": "uint256"
        }
      ],
      "stateMutability": "view",
      "type": "function"
    },
    {
      "inputs": [
        {
          "internalType": "bytes32",
          "name": "_queryId",
          "type": "bytes32"
        }
      ],
      "name": "getNewValueCountbyQueryId",
      "outputs": [
        {
          "internalType": "uint256",
          "name": "",
          "type": "uint256"
        }
      ],
      "stateMutability": "view",
      "type": "function"
    },
    {
      "inputs": [
        {
          "internalType": "bytes32",
          "name": "_queryId",
          "type": "bytes32"
        },
        {
          "internalType": "uint256",
          "name": "_timestamp",
          "type": "uint256"
        }
      ],
      "name": "getReporterByTimestamp",
      "outputs": [
        {
          "internalType": "address",
          "name": "",
          "type": "address"
        }
      ],
      "stateMutability": "view",
      "type": "function"
    },
    {
      "inputs": [],
      "name": "getTimeOfLastNewValue",
      "outputs": [
        {
          "internalType": "uint256",
          "name": "",
          "type": "uint256"
        }
      ],
      "stateMutability": "view",
      "type": "function"
    },
    {
      "inputs": [
        {
          "internalType": "bytes32",
          "name": "_queryId",
          "type": "bytes32"
        },
        {
          "internalType": "uint256",
          "name": "_index",
          "type": "uint256"
        }
      ],
      "name": "getTimestampbyQueryIdandIndex",
      "outputs": [
        {
          "internalType": "uint256",
          "name": "",
          "type": "uint256"
        }
      ],
      "stateMutability": "view",
      "type": "function"
    },
    {
      "inputs": [
        {
          "internalType": "bytes32",
          "name": "_queryId",
          "type": "bytes32"
        },
        {
          "internalType": "uint256",
          "name": "_timestamp",
          "type": "uint256"
        }
      ],
      "name": "isInDispute",
      "outputs": [
        {
          "internalType": "bool",
          "name": "",
          "type": "bool"
        }
      ],
      "stateMutability": "view",
      "type": "function"
    },
    {
      "inputs": [],
      "name": "pauseBridge",
      "outputs": [],
      "stateMutability": "nonpayable",
      "type": "function"
    },
    {
      "inputs": [],
      "name": "tellorFlex",
      "outputs": [
        {
          "internalType": "contract ITellorFlex",
          "name": "",
          "type": "address"
        }
      ],
      "stateMutability": "view",
      "type": "function"
    },
    {
      "inputs": [],
      "name": "token",
      "outputs": [
        {
          "internalType": "contract ITellorMaster",
          "name": "",
          "type": "address"
        }
      ],
      "stateMutability": "view",
      "type": "function"
    },
    {
      "inputs": [
        {
          "internalType": "address",
          "name": "",
          "type": "address"
        }
      ],
      "name": "tokensToClaim",
      "outputs": [
        {
          "internalType": "uint256",
          "name": "",
          "type": "uint256"
        }
      ],
      "stateMutability": "view",
      "type": "function"
    },
    {
      "inputs": [],
      "name": "unpauseBridge",
      "outputs": [],
      "stateMutability": "nonpayable",
      "type": "function"
    },
    {
      "inputs": [],
      "name": "verify",
      "outputs": [
        {
          "internalType": "uint256",
          "name": "",
          "type": "uint256"
        }
      ],
      "stateMutability": "pure",
      "type": "function"
    },
    {
      "inputs": [
        {
          "internalType": "uint256",
          "name": "",
          "type": "uint256"
        }
      ],
      "name": "withdrawClaimed",
      "outputs": [
        {
          "internalType": "bool",
          "name": "",
          "type": "bool"
        }
      ],
      "stateMutability": "view",
      "type": "function"
    },
    {
      "inputs": [
        {
          "components": [
            {
              "internalType": "bytes32",
              "name": "queryId",
              "type": "bytes32"
            },
            {
              "components": [
                {
                  "internalType": "bytes",
                  "name": "value",
                  "type": "bytes"
                },
                {
                  "internalType": "uint256",
                  "name": "timestamp",
                  "type": "uint256"
                },
                {
                  "internalType": "uint256",
                  "name": "aggregatePower",
                  "type": "uint256"
                },
                {
                  "internalType": "uint256",
                  "name": "previousTimestamp",
                  "type": "uint256"
                },
                {
                  "internalType": "uint256",
                  "name": "nextTimestamp",
                  "type": "uint256"
                }
              ],
              "internalType": "struct ReportData",
              "name": "report",
              "type": "tuple"
            },
            {
              "internalType": "uint256",
              "name": "attestationTimestamp",
              "type": "uint256"
            }
          ],
          "internalType": "struct OracleAttestationData",
          "name": "_attestData",
          "type": "tuple"
        },
        {
          "components": [
            {
              "internalType": "address",
              "name": "addr",
              "type": "address"
            },
            {
              "internalType": "uint256",
              "name": "power",
              "type": "uint256"
            }
          ],
          "internalType": "struct Validator[]",
          "name": "_valset",
          "type": "tuple[]"
        },
        {
          "components": [
            {
              "internalType": "uint8",
              "name": "v",
              "type": "uint8"
            },
            {
              "internalType": "bytes32",
              "name": "r",
              "type": "bytes32"
            },
            {
              "internalType": "bytes32",
              "name": "s",
              "type": "bytes32"
            }
          ],
          "internalType": "struct Signature[]",
          "name": "_sigs",
          "type": "tuple[]"
        },
        {
          "internalType": "uint256",
          "name": "_depositId",
          "type": "uint256"
        }
      ],
      "name": "withdrawFromLayer",
      "outputs": [],
      "stateMutability": "nonpayable",
      "type": "function"
    },
    {
      "inputs": [],
      "name": "withdrawLimit",
      "outputs": [
        {
          "internalType": "uint256",
          "name": "",
          "type": "uint256"
        }
      ],
      "stateMutability": "view",
      "type": "function"
    },
    {
      "inputs": [],
      "name": "withdrawLimitRecord",
      "outputs": [
        {
          "internalType": "uint256",
          "name": "",
          "type": "uint256"
        }
      ],
      "stateMutability": "view",
      "type": "function"
    },
    {
      "inputs": [],
      "name": "withdrawLimitUpdateTime",
      "outputs": [
        {
          "internalType": "uint256",
          "name": "",
          "type": "uint256"
        }
      ],
      "stateMutability": "view",
      "type": "function"
    }
  ],
  "bytecode": "0x60a060405260006080908152620000189060c06200010e565b60408051601f198184030181529082905262000037916020016200012a565b604051602081830303815290604052805190602001206000553480156200005d57600080fd5b50604051620028c5380380620028c5833981016040819052620000809162000190565b600280546001600160a01b03199081166001600160a01b03938416179091556001805482169483169490941790935560038054909316911617905560c8600455620001da565b6000815180845260005b81811015620000ee57602081850181015186830182015201620000d0565b506000602082860101526020601f19601f83011685010191505092915050565b602081526000620001236020830184620000c6565b9392505050565b60408152601360408201527f54656c6c6f724f7261636c6541646472657373000000000000000000000000006060820152608060208201526000620001236080830184620000c6565b80516001600160a01b03811681146200018b57600080fd5b919050565b600080600060608486031215620001a657600080fd5b620001b18462000173565b9250620001c16020850162000173565b9150620001d16040850162000173565b90509250925092565b6126db80620001ea6000396000f3fe608060405234801561001057600080fd5b50600436106102065760003560e01c8063b02c43d01161011a578063e513730b116100ad578063f4913c7e1161007c578063f4913c7e14610441578063f848d54114610454578063fa3c06d21461045c578063fc0c546a14610465578063fc735e991461047857600080fd5b8063e513730b14610400578063e5d8b9dc14610413578063e78cea9214610426578063ecf708581461043957600080fd5b8063ce5e11bf116100e9578063ce5e11bf1461039e578063d9c51cd4146103b1578063db1cce41146103c4578063e07c5486146103d557600080fd5b8063b02c43d014610361578063b8eed26314610385578063c049e6531461038d578063c0f95d521461039657600080fd5b80637dd0480f1161019d5780639410e01f1161016c5780639410e01f1461031d5780639852099c146103265780639b965a731461032f578063a792765f14610337578063a82f143c1461035957600080fd5b80637dd0480f146102f95780637f629c651461030157806389c5a50e1461030b5780638f4588cb1461031457600080fd5b806335e3119e116101d957806335e3119e146102b05780634466ec2c146102b957806344e87f91146102d357806377b03e0d146102e657600080fd5b8063178073dd1461020b5780631e86833414610243578063285bbd48146102715780632944908514610286575b600080fd5b61022e610219366004611cd3565b600b6020526000908152604090205460ff1681565b60405190151581526020015b60405180910390f35b610263610251366004611d04565b600c6020526000908152604090205481565b60405190815260200161023a565b61028461027f366004611d04565b610480565b005b610299610294366004611d28565b61073c565b60408051921515835260208301919091520161023a565b61026361a8c081565b6007546102c69060ff1681565b60405161023a9190611d60565b61022e6102e1366004611d28565b6107c0565b6102636102f4366004611cd3565b61083e565b6102846108ac565b610263621baf8081565b610263600a5481565b61026360095481565b61026360065481565b61026360045481565b610263601481565b61034a610345366004611d28565b610b1b565b60405161023a93929190611dd8565b610284610bd8565b61037461036f366004611cd3565b610cf5565b60405161023a959493929190611e03565b610263600581565b61026360085481565b610263610db6565b6102636103ac366004611d28565b610e29565b6102846103bf366004611cd3565b610e9e565b61026369021e19e0c9bab240000081565b6103e86103e3366004611d28565b610f1d565b6040516001600160a01b03909116815260200161023a565b6002546103e8906001600160a01b031681565b610284610421366004611e87565b610f92565b6003546103e8906001600160a01b031681565b61026361153c565b61028461044f366004612022565b6115d4565b61026361197c565b61026360055481565b6001546103e8906001600160a01b031681565b61270f610263565b600160075460ff16600281111561049957610499611d4a565b036104eb5760405162461bcd60e51b815260206004820152601d60248201527f546f6b656e4272696467653a206272696467652069732070617573656400000060448201526064015b60405180910390fd5b6001600160a01b0381166000908152600c6020526040902054806105465760405162461bcd60e51b81526020600482015260126024820152710616d6f756e74206d757374206265203e20360741b60448201526064016104e2565b6000610551826119cd565b9050600081116105b35760405162461bcd60e51b815260206004820152602760248201527f546f6b656e4272696467653a207769746864726177206c696d6974206d7573746044820152660206265203e20360cc1b60648201526084016104e2565b81811015610600576001600160a01b0383166000908152600c60205260409020546105df908290612088565b6001600160a01b0384166000908152600c602052604090205590508061061a565b6001600160a01b0383166000908152600c60205260408120555b81600a600082825461062c9190612088565b909155505060015460405163a9059cbb60e01b81526001600160a01b038581166004830152602482018590529091169063a9059cbb906044016020604051808303816000875af1158015610684573d6000803e3d6000fd5b505050506040513d601f19601f820116820180604052508101906106a891906120b0565b6106f45760405162461bcd60e51b815260206004820152601c60248201527f546f6b656e4272696467653a207472616e73666572206661696c65640000000060448201526064016104e2565b604080516001600160a01b0385168152602081018490527f9e0580024755a2e1f3a499efe43139fe7908912aff1ecacee8287b54d4418f3a91015b60405180910390a1505050565b600254604051632944908560e01b8152600481018490526024810183905260009182916001600160a01b03909116906329449085906044016040805180830381865afa158015610790573d6000803e3d6000fd5b505050506040513d601f19601f820116820180604052508101906107b491906120cb565b915091505b9250929050565b6002546040516344e87f9160e01b815260048101849052602481018390526000916001600160a01b0316906344e87f9190604401602060405180830381865afa158015610811573d6000803e3d6000fd5b505050506040513d601f19601f8201168201806040525081019061083591906120b0565b90505b92915050565b6002546040516377b03e0d60e01b8152600481018390526000916001600160a01b0316906377b03e0d90602401602060405180830381865afa158015610888573d6000803e3d6000fd5b505050506040513d601f19601f8201168201806040525081019061083891906120f7565b600360009054906101000a90046001600160a01b03166001600160a01b031663452a93206040518163ffffffff1660e01b8152600401602060405180830381865afa1580156108ff573d6000803e3d6000fd5b505050506040513d601f19601f820116820180604052508101906109239190612110565b6001600160a01b0316336001600160a01b0316146109975760405162461bcd60e51b815260206004820152602b60248201527f546f6b656e4272696467653a206f6e6c7920677561726469616e2063616e207060448201526a617573652062726964676560a81b60648201526084016104e2565b600060075460ff1660028111156109b0576109b0611d4a565b146109fd5760405162461bcd60e51b815260206004820181905260248201527f546f6b656e4272696467653a2063616e206f6e6c79207061757365206f6e636560448201526064016104e2565b6001546040516323b872dd60e01b815233600482015261dead602482015269021e19e0c9bab240000060448201526001600160a01b03909116906323b872dd906064016020604051808303816000875af1158015610a5f573d6000803e3d6000fd5b505050506040513d601f19601f82011682018060405250810190610a8391906120b0565b610acf5760405162461bcd60e51b815260206004820152601c60248201527f546f6b656e4272696467653a207472616e73666572206661696c65640000000060448201526064016104e2565b6007805460ff19166001908117909155426008556040517f9309bd706341b8519d822d5ea2ce463296bce466f9ce1c8814aa1ddc10708b8791610b1191611d60565b60405180910390a1565b60006060600080548503610b5257604080513060208201526001910160405160208183030381529060405242925092509250610bd1565b60025460405163a792765f60e01b815260048101879052602481018690526001600160a01b039091169063a792765f90604401600060405180830381865afa158015610ba2573d6000803e3d6000fd5b505050506040513d6000823e601f3d908101601f19168201604052610bca919081019061212d565b9250925092505b9250925092565b600160075460ff166002811115610bf157610bf1611d4a565b14610c485760405162461bcd60e51b815260206004820152602160248201527f546f6b656e4272696467653a20627269646765206973206e6f742070617573656044820152601960fa1b60648201526084016104e2565b621baf8060085442610c5a9190612088565b11610cb75760405162461bcd60e51b815260206004820152602760248201527f546f6b656e4272696467653a206d7573742077616974206265666f726520756e60448201526670617573696e6760c81b60648201526084016104e2565b6007805460ff191660029081179091556040517f9309bd706341b8519d822d5ea2ce463296bce466f9ce1c8814aa1ddc10708b8791610b1191611d60565b600d60205260009081526040902080546001820180546001600160a01b039092169291610d21906121c0565b80601f0160208091040260200160405190810160405280929190818152602001828054610d4d906121c0565b8015610d9a5780601f10610d6f57610100808354040283529160200191610d9a565b820191906000526020600020905b815481529060010190602001808311610d7d57829003601f168201915b5050505050908060020154908060030154908060040154905085565b6002546040805163607caea960e11b815290516000926001600160a01b03169163c0f95d529160048083019260209291908290030181865afa158015610e00573d6000803e3d6000fd5b505050506040513d601f19601f82011682018060405250810190610e2491906120f7565b905090565b60025460405163ce5e11bf60e01b815260048101849052602481018390526000916001600160a01b03169063ce5e11bf90604401602060405180830381865afa158015610e7a573d6000803e3d6000fd5b505050506040513d601f19601f8201168201806040525081019061083591906120f7565b6001546040516323b872dd60e01b8152336004820152306024820152604481018390526001600160a01b03909116906323b872dd906064016020604051808303816000875af1158015610ef5573d6000803e3d6000fd5b505050506040513d601f19601f82011682018060405250810190610f1991906120b0565b5050565b60025460405163703e2a4360e11b815260048101849052602481018390526000916001600160a01b03169063e07c548690604401602060405180830381865afa158015610f6e573d6000803e3d6000fd5b505050506040513d601f19601f820116820180604052508101906108359190612110565b600160075460ff166002811115610fab57610fab611d4a565b03610ff85760405162461bcd60e51b815260206004820152601d60248201527f546f6b656e4272696467653a206272696467652069732070617573656400000060448201526064016104e2565b604080516000602082015290810182905260600160408051601f1981840301815290829052611029916020016121fa565b604051602081830303815290604052805190602001208660000135146110915760405162461bcd60e51b815260206004820152601c60248201527f546f6b656e4272696467653a20696e76616c696420717565727949640000000060448201526064016104e2565b6000818152600b602052604090205460ff16156110fe5760405162461bcd60e51b815260206004820152602560248201527f546f6b656e4272696467653a20776974686472617720616c726561647920636c604482015264185a5b595960da1b60648201526084016104e2565b61a8c06103e8611111602089018961222d565b6020013561111f919061224d565b6111299042612088565b116111815760405162461bcd60e51b815260206004820152602260248201527f546f6b656e4272696467653a207072656d61747572652061747465737461746960448201526137b760f11b60648201526084016104e2565b61a8c06111946103e8604089013561224d565b61119e9042612088565b106111eb5760405162461bcd60e51b815260206004820181905260248201527f546f6b656e4272696467653a206174746573746174696f6e20746f6f206f6c6460448201526064016104e2565b600354604051632890d93760e11b81526001600160a01b0390911690635121b26e906112239089908990899089908990600401612348565b60006040518083038186803b15801561123b57600080fd5b505afa15801561124f573d6000803e3d6000fd5b50505050600360009054906101000a90046001600160a01b03166001600160a01b031663ba95ec276040518163ffffffff1660e01b8152600401602060405180830381865afa1580156112a6573d6000803e3d6000fd5b505050506040513d601f19601f820116820180604052508101906112ca91906120f7565b6112d7602088018861222d565b60400135101561135d5760405162461bcd60e51b815260206004820152604560248201527f5265706f72742061676772656761746520706f776572206d757374206265206760448201527f726561746572207468616e206f7220657175616c20746f205f6d696e696d756d6064820152642837bbb2b960d91b608482015260a4016104e2565b6000818152600b602090815260408220805460ff1916600117905581908190611388908a018a61222d565b6113929080612439565b81019061139f9190612480565b509194509250905060006113b88264e8d4a510006124e0565b905060006113c5826119cd565b905081811015611419576113d98183612088565b6001600160a01b0386166000908152600c60205260409020546113fc91906124f7565b6001600160a01b0386166000908152600c60205260409020559050805b81600a600082825461142b9190612088565b909155505060015460405163a9059cbb60e01b81526001600160a01b038781166004830152602482018590529091169063a9059cbb906044016020604051808303816000875af1158015611483573d6000803e3d6000fd5b505050506040513d601f19601f820116820180604052508101906114a791906120b0565b6114f35760405162461bcd60e51b815260206004820152601c60248201527f546f6b656e4272696467653a207472616e73666572206661696c65640000000060448201526064016104e2565b7e1e3fbdbd61c5a2425d14ff0020dd9bbd2bac70b606f7bd7552534c7bae55df86858785604051611527949392919061250a565b60405180910390a15050505050505050505050565b600061a8c06005544261154f9190612088565b11156115cd576001546040516370a0823160e01b81523060048201526005916001600160a01b0316906370a08231906024015b602060405180830381865afa15801561159f573d6000803e3d6000fd5b505050506040513d601f19601f820116820180604052508101906115c391906120f7565b610e24919061224d565b5060065490565b67016345785d8a000083116116475760405162461bcd60e51b815260206004820152603360248201527f546f6b656e4272696467653a20616d6f756e74206d7573742062652067726561604482015272746572207468616e20302e3120746f6b656e7360681b60648201526084016104e2565b61165083611b50565b8311156116c55760405162461bcd60e51b815260206004820152603960248201527f546f6b656e4272696467653a20616d6f756e742065786365656473206465706f60448201527f736974206c696d697420666f722074696d6520706572696f640000000000000060648201526084016104e2565b8282111561173b5760405162461bcd60e51b815260206004820152603560248201527f546f6b656e4272696467653a20746970206d757374206265206c65737320746860448201527f616e206f7220657175616c20746f20616d6f756e74000000000000000000000060648201526084016104e2565b81156117bc5764e8d4a510008210156117bc5760405162461bcd60e51b815260206004820152603860248201527f546f6b656e4272696467653a20746970206d757374206265206772656174657260448201527f207468616e206f7220657175616c20746f2031206c6f7961000000000000000060648201526084016104e2565b6001546040516323b872dd60e01b8152336004820152306024820152604481018590526001600160a01b03909116906323b872dd906064016020604051808303816000875af1158015611813573d6000803e3d6000fd5b505050506040513d601f19601f8201168201806040525081019061183791906120b0565b6118835760405162461bcd60e51b815260206004820181905260248201527f546f6b656e4272696467653a207472616e7366657246726f6d206661696c656460448201526064016104e2565b600480549060006118938361253f565b919050555082600660008282546118aa9190612088565b90915550506040805160a0810182523381526020808201848152828401879052606083018690524360808401526004546000908152600d9092529290208151815473ffffffffffffffffffffffffffffffffffffffff19166001600160a01b039091161781559151909190600182019061192490826125a9565b506040828101516002830155606083015160038301556080909201516004918201555490517fe9a436e6735e7a54b0d2505d14247a614f3af68dad813a7a46834b876b13d7c19161072f913390859088908890612669565b600061a8c06009544261198f9190612088565b11156119c6576001546040516370a0823160e01b81523060048201526014916001600160a01b0316906370a0823190602401611582565b50600a5490565b600061a8c0600954426119e09190612088565b1115611b48576001546040516370a0823160e01b81523060048201526000916001600160a01b0316906370a0823190602401602060405180830381865afa158015611a2f573d6000803e3d6000fd5b505050506040513d601f19601f82011682018060405250810190611a5391906120f7565b905082811015611b3457600160009054906101000a90046001600160a01b03166001600160a01b031663b67f8cbd6040518163ffffffff1660e01b8152600401600060405180830381600087803b158015611aad57600080fd5b505af1158015611ac1573d6000803e3d6000fd5b50506001546040516370a0823160e01b81523060048201526001600160a01b0390911692506370a082319150602401602060405180830381865afa158015611b0d573d6000803e3d6000fd5b505050506040513d601f19601f82011682018060405250810190611b3191906120f7565b90505b611b3f60148261224d565b600a5550426009555b5050600a5490565b600061a8c060055442611b639190612088565b1115611ccb576001546040516370a0823160e01b81523060048201526000916001600160a01b0316906370a0823190602401602060405180830381865afa158015611bb2573d6000803e3d6000fd5b505050506040513d601f19601f82011682018060405250810190611bd691906120f7565b905082811015611cb757600160009054906101000a90046001600160a01b03166001600160a01b031663b67f8cbd6040518163ffffffff1660e01b8152600401600060405180830381600087803b158015611c3057600080fd5b505af1158015611c44573d6000803e3d6000fd5b50506001546040516370a0823160e01b81523060048201526001600160a01b0390911692506370a082319150602401602060405180830381865afa158015611c90573d6000803e3d6000fd5b505050506040513d601f19601f82011682018060405250810190611cb491906120f7565b90505b611cc260058261224d565b60065550426005555b505060065490565b600060208284031215611ce557600080fd5b5035919050565b6001600160a01b0381168114611d0157600080fd5b50565b600060208284031215611d1657600080fd5b8135611d2181611cec565b9392505050565b60008060408385031215611d3b57600080fd5b50508035926020909101359150565b634e487b7160e01b600052602160045260246000fd5b6020810160038310611d8257634e487b7160e01b600052602160045260246000fd5b91905290565b60005b83811015611da3578181015183820152602001611d8b565b50506000910152565b60008151808452611dc4816020860160208601611d88565b601f01601f19169290920160200192915050565b8315158152606060208201526000611df36060830185611dac565b9050826040830152949350505050565b6001600160a01b038616815260a060208201526000611e2560a0830187611dac565b604083019590955250606081019290925260809091015292915050565b60008083601f840112611e5457600080fd5b50813567ffffffffffffffff811115611e6c57600080fd5b6020830191508360206060830285010111156107b957600080fd5b60008060008060008060808789031215611ea057600080fd5b863567ffffffffffffffff80821115611eb857600080fd5b908801906060828b031215611ecc57600080fd5b90965060208801359080821115611ee257600080fd5b818901915089601f830112611ef657600080fd5b813581811115611f0557600080fd5b8a60208260061b8501011115611f1a57600080fd5b602083019750809650506040890135915080821115611f3857600080fd5b50611f4589828a01611e42565b979a9699509497949695606090950135949350505050565b634e487b7160e01b600052604160045260246000fd5b604051601f8201601f1916810167ffffffffffffffff81118282101715611f9c57611f9c611f5d565b604052919050565b600067ffffffffffffffff821115611fbe57611fbe611f5d565b50601f01601f191660200190565b600082601f830112611fdd57600080fd5b8135611ff0611feb82611fa4565b611f73565b81815284602083860101111561200557600080fd5b816020850160208301376000918101602001919091529392505050565b60008060006060848603121561203757600080fd5b8335925060208401359150604084013567ffffffffffffffff81111561205c57600080fd5b61206886828701611fcc565b9150509250925092565b634e487b7160e01b600052601160045260246000fd5b8181038181111561083857610838612072565b805180151581146120ab57600080fd5b919050565b6000602082840312156120c257600080fd5b6108358261209b565b600080604083850312156120de57600080fd5b6120e78361209b565b9150602083015190509250929050565b60006020828403121561210957600080fd5b5051919050565b60006020828403121561212257600080fd5b8151611d2181611cec565b60008060006060848603121561214257600080fd5b61214b8461209b565b9250602084015167ffffffffffffffff81111561216757600080fd5b8401601f8101861361217857600080fd5b8051612186611feb82611fa4565b81815287602083850101111561219b57600080fd5b6121ac826020830160208601611d88565b809450505050604084015190509250925092565b600181811c908216806121d457607f821691505b6020821081036121f457634e487b7160e01b600052602260045260246000fd5b50919050565b60408152600960408201526854524242726964676560b81b60608201526080602082015260006108356080830184611dac565b60008235609e1983360301811261224357600080fd5b9190910192915050565b60008261226a57634e487b7160e01b600052601260045260246000fd5b500490565b81835281816020850137506000828201602090810191909152601f909101601f19169091010190565b8183526000602080850194508260005b858110156122e05781356122bb81611cec565b6001600160a01b031687528183013583880152604096870196909101906001016122a8565b509495945050505050565b818352600060208085019450826000805b8681101561233c57823560ff8116808214612315578384fd5b895250828401358489015260408084013590890152606097880197909201916001016122fc565b50959695505050505050565b606081528535606082015260006020870135609e1988360301811261236c57600080fd5b606060808401528701803536829003601e1901811261238a57600080fd5b810160208101903567ffffffffffffffff8111156123a757600080fd5b8036038213156123b657600080fd5b60a060c08601526123cc6101608601828461226f565b915050602082013560e0850152604082013561010085015260608201356101208501526080820135610140850152604089013560a0850152838103602085015261241781888a612298565b915050828103604084015261242d8185876122eb565b98975050505050505050565b6000808335601e1984360301811261245057600080fd5b83018035915067ffffffffffffffff82111561246b57600080fd5b6020019150368190038213156107b957600080fd5b6000806000806080858703121561249657600080fd5b84356124a181611cec565b9350602085013567ffffffffffffffff8111156124bd57600080fd5b6124c987828801611fcc565b949794965050505060408301359260600135919050565b808202811582820484141761083857610838612072565b8082018082111561083857610838612072565b8481526080602082015260006125236080830186611dac565b6001600160a01b03949094166040830152506060015292915050565b60006001820161255157612551612072565b5060010190565b601f8211156125a4576000816000526020600020601f850160051c810160208610156125815750805b601f850160051c820191505b818110156125a05782815560010161258d565b5050505b505050565b815167ffffffffffffffff8111156125c3576125c3611f5d565b6125d7816125d184546121c0565b84612558565b602080601f83116001811461260c57600084156125f45750858301515b600019600386901b1c1916600185901b1785556125a0565b600085815260208120601f198616915b8281101561263b5788860151825594840194600190910190840161261c565b50858210156126595787850151600019600388901b60f8161c191681555b5050505050600190811b01905550565b8581526001600160a01b038516602082015260a06040820152600061269160a0830186611dac565b60608301949094525060800152939250505056fea2646970667358221220a3875a5fecaa9a091e522b5018d19cb7b50148bdf648bd94aac7c9bdbb1eef5764736f6c63430008160033",
  "linkReferences": {},
  "deployedLinkReferences": {}
}